:020000040000FA
:060000008B1384315E2C1D
:04000600003400348E
:06000A0070308331AD23CC
:100010008031F7308331AD238031210019088331DD
:10002000AD2384318324843188248031130021005E
:10003000990007308331AD23803120000B088331D4
:10004000AD238231BF228031130020008B000530A8
:100050008331AD238031240015088331AD238231F3
:10006000BF22803113002400950008308331AD2376
:10007000803113002400950000308331AD2380319E
:1000800013002400960013308331AD238031130018
:100090002400920080308331AD238031130024008E
:1000A000940012308331AD238031130021008D0084
:1000B00004308331AD23803123000D088331AD231B
:1000C0008231BF228031130023008D000130833143
:1000D000AD23803123000D088331AD238231BF224F
:1000E0008031130023008D0005308331AD23803132
:1000F00006308331AD238031240017088331AD23CE
:1001000082318822823188228031130024009700B6
:1001100005308331AD238031240015088331AD23B0
:10012000823188228031130024009500043083310D
:10013000AD23803123001D088331AD238231882215
:100140008031130023009D0002308331AD238031C4
:1001500023001E088331AD238231882280311300B1
:1001600023009E0003308331AD23803123001F081C
:100170008331AD23823188228031130023009F0018
:1001800040308331AD238031130023009B000330C6
:100190008331AD238031130023009C00063083316E
:1001A000AD23803105308331AD238031043083317C
:1001B000AD23803123001E088331AD238231BF225D
:1001C000823188228231BF228031130023009E00B9
:1001D00004308331AD23803123001F088331AD23E8
:1001E000823188228031130023009F000730833141
:1001F000AD23803123001D088331AD238231882255
:100200008031130023009D0005308331AD23803100
:1002100021000D088331AD238231BF2280311300CC
:1002200021008D0005308331AD23803123000D087E
:100230008331AD238231BF228031130023008D0032
:1002400001308331AD23803123000D088331AD238C
:100250008231BF228031130023008D0000308331B2
:10026000AD23803122001E088331AD2382318822E4
:100270008031130022009E004F308331AD23843142
:100280007C2480314B308331AD2384317C24843114
:1002900031248331D523833127238031D2308331F8
:1002A000AD2380311300240091008331D5238331A5
:1002B000272380316B308331AD238031130024003C
:1002C00091008331D523833127238031003083315E
:1002D000AD2380311300240091008331D523833175
:1002E0002723843111248331D52382310F22813198
:0602F0007B2180317A2918
:0A02F60006308331AD23813124006E
:1003000016088331AD238231BF22813113002400CE
:100310009600843131248331D5238131D230833129
:10032000AD2381311300240091008331D523833123
:10033000272381313D308331AD23813113002400E7
:1003400091008331D52383312723813101308331DB
:10035000AD238131240016088331AD2382318822F8
:1003600081311300240096008331D5238131D330AD
:100370008331AD2381311300240091008331D523D3
:1003800083312723813103308331AD238131240030
:1003900016088331AD238231882281311300240075
:1003A00096008331C3238331D523813103308331D8
:1003B000AD238131200011088331AD238231BF226A
:1003C0008131130020009100240011088331AD23F6
:1003D0008231F622813100308331AD238131240016
:1003E00014088331AD238231BF22813113002400F0
:1003F0009400833173238331D523843111248331D5
:10040000D52381310D308331AD2384317C2481317A
:0E0410000A308331AD2384317C2481317B2975
:02041E0020308C
:100420008331AD2384317C24823120308331AD236C
:1004300084317C24823120308331AD2384317C248B
:10044000823120308331AD2384317C2482312030CD
:100450008331AD2384317C24823120308331AD233C
:1004600084317C24823120308331AD2384317C245B
:10047000823120308331AD2384317C24823120309D
:100480008331AD2384317C24823120308331AD230C
:1004900084317C24823120308331AD2384317C242B
:1004A000823120308331AD2384317C24823120306D
:1004B0008331AD2384317C24823120308331AD23DC
:1004C00084317C24823120308331AD2384317C24FB
:1004D000823120308331AD2384317C24823120303D
:1004E0008331AD2384317C24823120308331AD23AC
:1004F00084317C24823120308331AD2384317C24CB
:10050000823120308331AD2384317C248231080054
:1005100013002400B4001300003A031D922A34088B
:100520000138BD2A013A031D982A34080238BD2A31
:10053000013A023A031D9F2A34080438BD2A023AC0
:10054000033A031DA62A34080838BD2A033A043AA0
:10055000031DAD2A34081038BD2A043A053A031D9C
:10056000B42A34082038BD2A053A063A031DBB2AAE
:0E05700034084038BD2A3408803818000800CE
:02057E00130068
:100580002400B4001300003A031DC92A3408FE39C0
:10059000F42A013A031DCF2A3408FD39F42A013A1E
:1005A000023A031DD62A3408FB39F42A023A033AE8
:1005B000031DDD2A3408F739F42A033A043A031DEF
:1005C000E42A3408EF39F42A043A053A031DEB2AE9
:1005D0003408DF39F42A053A063A031DF22A3408B2
:0C05E000BF39F42A34087F3918000800E5
:0405EC0013002400D4
:1005F000BA0018006430180084314024823113009E
:10060000303E180084317C24823124003A081800DE
:100610006430180084314F2482310A30180084314C
:10062000402482311300303E180084317C24823112
:1006300024003A0818000A30180084314F2482310F
:0E0640001300303E180084317C248231080003
:02064E0004089E
:1006500084319724833106308331AD2383312400E4
:1006600016088331AD23833156238331F923833137
:100670001300003A03193D2B512B45308331AD2334
:1006800084317C24833152308331AD2384317C2406
:10069000833152308331AD2384317C24833127234D
:0C06A000833184319924833184000800E8
:0406AC001300240013
:1006B000B40001302400B60013002400B500031973
:1006C000672B03102400B60D2400B503F833240073
:1006D00034082400B605031D702B003018000800F4
:0606E000013018000800C3
:0A06E60005308331AD238331240079
:1006F00016088331AD238231882283311300240010
:10070000960004308331AD238331240016088331F1
:10071000AD23823188228331130024009600080023
:1007200005308331AD238331240016088331AD2396
:100730008231BF22833113002400960004308331BC
:10074000AD238331240016088331AD238231882202
:0A0750008331130024009600080016
:06075A0018000408203C19
:100760000319B42B0318BB2B0408013E703C031C77
:10077000BB2B000808008B13840321301800843140
:060780007C248331BD2B37
:0A07860000308331AD2383312400DD
:1007900014088331AD238331562383311300003A8B
:0A07A0000319D32BD42BC32B080040
:0607AA008331E7238331D7
:1007B00003308331AD238331200011088331AD2311
:0E07C0008231BF228331130020009100080017
:0207CE000330F6
:1007D0008331AD238331200011088331AD23833170
:1007E000562383311300003A0319F72BF82BE72B1C
:0207F0000800FF
:0E07F20080080319FE2B8001FF2B0014080065
:100800001700F2000408F0000008720284000008DB
:10081000F10070088400F0017108800072088431D2
:02082000972C13
:0E08220002308331AD23843124001608833167
:10083000AD23823188228431130024009600080001
:02084000202C6A
:0E08420023009D1C262C1D121D161D1D2A2C88
:100850009D139D172000911E2B2C230019081800B2
:0208600008008E
:0E08620000308331AD23843124001608833129
:10087000AD238231882284311300240096000800C1
:100880002400B6011300B5001300B4003508B4020B
:0E089000031C4C2CB60A472C36081800080032
:02089E00240034
:1008A000B6011300B5001300B4003508B402031CF0
:0C08B0005B2CB60A562C34071800080018
:0408BC00F8011F30F0
:1008C0008400003085001F30860002308700F00170
:0408D0008031052846
:0C08D40013002400B40003010007B4036B
:0808E000031D6E2C80000800CE
:0808E800130000060130031D9E
:0808F000003084031800080029
:0808F800130023009A00200008
:06090000111E802C08000E
:0A0906001300000584031800080028
:0A091000130000048403180008001F
:06091A0013000007840336
:0409200018000800B3
:060924008009800A0800B2
:04092A00840308003A
:02092E001C00AB
:020930000800BD
:0409320017000800A2
:020000040001F9
:02000E00A4C983
:02001000FFDF10
:00000001FF
