:020000040000FA
:060000008B138531CF2DAA
:04000600003400348E
:06000A0013002400B20007
:1000100013002400B30013002400B40013002400D4
:10002000B5002610AF01B101B51B3114B31BB114DB
:10003000B21B2228B41F1D28322834083202031CA8
:1000400024283228B41B1D283208B4063408B2060E
:100050003208B4063308B5063508B3063308B506CA
:100060002B143328AB0135087F39B50033087F39AD
:10007000B300A9013508803E0318A90AAD00A80104
:100080003308803E0318A80AAC00AA01A401340872
:10009000320603195228AA36AD36031C5028AA1777
:1000A000B40A47282B1C5D282C08AD062D08AC0689
:1000B0002C08AD062A08A400AA012400311C6428DB
:1000C000B11C64282614C528311C92282D082C0246
:1000D000AF0003186D2826149428AF080319EE28E2
:1000E000AF1B7F28AF35AA1F7C28AF03FF302F0638
:1000F000031D7C2826149428AA35B4037028AA1F4F
:100100009128AF03FF302F06031D8828261494285A
:100110007F302F06031D9128AF35B4032A1B912889
:10012000AF0AEE28B11CC5282C082D02AF00031819
:100130009B2826146628AF080319EE28AF1BAD28AC
:10014000AF35A41FAA28AF03FF302F06031DAA282E
:1001500026146628A435B4039E28A41FBF28AF0325
:10016000FF302F06031DB628261466287F302F0681
:10017000031DBF28AF35B403241BBF28AF0AEE28E8
:100180002D082C02AF002614EE28A0012D082C0704
:10019000AF00031CCC28A00A2A0824070318D4287F
:1001A0008039031DD428D928AF0AAF08031DD928E8
:1001B000A00AA0080319EE28A201AD3603182214E4
:1001C000AA36221CE428AA17A201AC36031822146E
:1001D000A436221CEC28AA17B40AC5282F08031D30
:1001E000F628003018008030180000292F08803EC3
:1001F000AF002618AF172F08180024003408180085
:020200000800F4
:0E020200040886310326813102308331E52362
:1002100085317425813101308331E52385317425A1
:100220008531952581311300003A03191C290030CE
:100230008331E5238131532902308331E523853130
:100240007425813101308331E52385317425813175
:100250007A308331E523813109308331E5238431DC
:10026000682481311300003A03193B29FF308331A0
:10027000E5238131532902308331E523853174250B
:10028000813101308331E52385317425813100309E
:100290008331E523813102308331E52382319F228E
:1002A0008531012581311300250091000230833111
:1002B000E52385317425813101308331E523853192
:1002C0007425813180308331E523813100308331E1
:1002D000E523813100308331E523813102308331E0
:1002E000E5238131250011088331E5238431002481
:1002F00083312E2383312E23803105208531C22581
:10030000813120308331E523813101308331E52390
:100310008431682481311300003A0319A42905307F
:100320008331E523813104308331E5238131250098
:1003300013088331E5238331AE238331AE2381312A
:10034000130025009300E4298531C2258131403016
:100350008331E523813100308331E5238431682402
:1003600081311300003A0319C42905308331E52394
:100370008131250013088331E5238331AE23813198
:10038000130025009300E4298531C2258131003016
:100390008331E5238131FF308331E52384316824C3
:1003A00081311300003A0319E42904308331E52335
:1003B0008131250013088331E5238331AE23813158
:1003C000130025009300E42986310526813184003D
:0A03D0008403840384030800EC2971
:0603DA00FF308331E52332
:1003E0008131130020009B0000308331E5238131EF
:1003F00022001D088331E5238431CA248131130092
:1004000022009D0003308331E523813121000D0856
:100410008331E5238331AE238131130021008D0028
:1004200006308331E523813107308331E523813183
:10043000250013088331E5238431CA248431CA247A
:10044000813113002500930000308331E523813191
:1004500001308331E5238131250013088331E52301
:100460008431CA248431CA248131130025009300C9
:1004700002308331E523813103308331E52381313B
:10048000250013088331E5238331AE238331AE2366
:10049000813113002500930000308331E523813141
:1004A00001308331E523813125001E088331E523A6
:1004B0008431CA248431CA248131130025009E006E
:1004C00001308331E5238131200011088331E52398
:1004D0008431CA248131130020009100003083311F
:1004E000E523813101308331E523813120001C086F
:1004F0008331E5238431CA248431CA248131130035
:1005000020009C0002308331E523813120001C084B
:100510008331E5238331AE238131130020009C0019
:1005200003308331E523813121000D088331E52338
:0E0530008431CA248131130021008D0008009F
:02053E001300A8
:100540002400B200B10113002400B300B31BB114A6
:10055000B31313002400B40013002400B500B51B2E
:100560003114B5133408B0003208B002AD013508BB
:10057000803EB5003308803EB300AC00AB01AA0159
:10058000A901A801A6012608103A0319F82A35087E
:100590008039A400A935A835031CCF2AA90AB5358E
:1005A000AB350318B50AA4080319D92AA80A0319F8
:1005B000A90AA20133082802031C22142A08A9024E
:1005C0003308A8022218A903A91FF42A3308280710
:1005D000A201031822142A08A9073308A807221821
:1005E000A90AFE30AB05F62A0130AB04A60AC32ADD
:1005F0002B08AF00AE0135182E14AC36A001280828
:100600002C020318052BAF0A2014AE080319122B75
:100610002F1C0F2B20180F2BAF36AF0A102BAF3625
:10062000AF17132BB0032F08803EAD00AD1F1D2B5D
:10063000803EB003AF352F08142BAF003118232BA9
:10064000B11C282B252BB118282B2F088038AF0080
:0C0650002F0818002400300818000800D3
:04065C001300240063
:10066000AE00803A031D382B7F3000050319882B1C
:10067000AD0113002400AF00AF1BAD14AF13130086
:100680002400B000803A031D492B7F300005031978
:100690008A2B13002400B100B11B2D14B1133008B4
:1006A000AC002E08AC073108803E180024002F084B
:1006B000803E18008F2B13002400AB00AB1F672B6C
:1006C00013002400AC0A8039031DAB0A752B0310FC
:1006D00013002400A0008039031D03142400AB0D77
:1006E000200824004039031DAB0A2B08803EAB00D4
:1006F0002D187D2BAD1C822B7F2BAD18822B2B0848
:100700008038AB002B08180024002C0818008E2B12
:1007100013001300130080301800180008001300A5
:100720002400A90013002400A800A401A601A2012E
:10073000291C9E2B2808A6070318A40AA936A4364C
:10074000A60C0318A917A20A08302206031D982B2D
:0C075000290818002400260818005B2B64
:04075C001300240062
:10076000CA001300003A031DB82B4A080138E32BD6
:10077000013A031DBE2B4A080238E32B013A023A24
:10078000031DC52B4A080438E32B023A033A031D24
:10079000CC2B4A080838E32B033A043A031DD32B29
:1007A0004A081038E32B043A053A031DDA2B4A08AD
:1007B0002038E32B053A063A031DE12B4A0840385E
:0A07C000E32B4A08803818000800F7
:0607CA0018000408203CA9
:1007D0000319EC2B0318F32B0408013E703C031C97
:1007E000F32B000808008B13840321301800853197
:0607F000ED258331F52B1D
:0A07F600130000058403180008003A
:1008000013002400A000A01F0B2CA0132008180028
:1008100007301800672C201F162C2400201303100B
:10082000A00D2008180006301800672CA01E222CEE
:100830002400A0120310A00DA00D20081800053000
:100840001800672C201E2F2C240020120310A00D4E
:10085000A00DA00D2008180004301800672CA01D62
:100860003D2C2400A0110310A00DA00DA00DA00D83
:100870002008180003301800672C201D4C2C240081
:1008800020110310A00DA00DA00DA00DA00D20089B
:10089000180002301800672CA01C5C2C2400A0104B
:1008A0000310A00DA00DA00DA00DA00DA00D2008FF
:1008B000180001301800672C201C632C0030180031
:1008C00000301800672C0030180080301800080035
:1008D00013002400A0001300A2001300A4001300C2
:1008E000A600A901A801A61B2914A21B2814291CD3
:1008F0007E2C28187E2C00301800C92C2918852C35
:10090000281C852C01301800C92CA613A213A01B8B
:10091000922CA0080319922CA40803199D2CA41B47
:100920009D2C982CA41B9D2CA40803199D2CC42C31
:100930002408200203189D2CC42CA41BA82CA40856
:100940000319A82CA0080319B32CA01BB32CAE2CA0
:10095000A01BB32CA0080319B32CBE2C2008240222
:100960000318B32CBE2C26082202031CC42C220818
:100970002602031CBE2C00301800C92C24000030B5
:10098000291801301800C92C24000030291C01301E
:040990001800080043
:0C09940013002400CA001300003A031DE9
:1009A000D42C4A08FE39FF2C013A031DDA2C4A08E0
:1009B000FD39FF2C013A023A031DE12C4A08FB39AC
:1009C000FF2C023A033A031DE82C4A08F739FF2CA2
:1009D000033A043A031DEF2C4A08EF39FF2C043A7E
:1009E000053A031DF62C4A08DF39FF2C053A063A72
:1009F000031DFD2C4A08BF39FF2C4A087F39180017
:020A00000800EC
:0E0A020013002400A400A601A41F092D130058
:100A10002D2D1300803E2400A6002408073CA200D0
:100A200085308A001730220703188A0A82002D2D8C
:100A30002B2D292D272D252D232D212D1F2DA6369C
:100A4000A00CA636A00CA636A00CA636A00CA63686
:100A5000A00CA636A00CA636A00C24002608180070
:020A600008008C
:0E0A620070308331E5238531F7308331E52391
:100A70008531210019088331E5238331FB2385313A
:100A8000F42585311300210099008131ED21853154
:100A90007A308331E523853109308331E52385318F
:0E0AA00000308331E523813101218531562D4F
:020AAE00130033
:100AB0002400CA0001302400CC0013002400CB0025
:100AC0000319682D03102400CC0D2400CB03F83348
:100AD00024004A082400CC05031D712D00301800A5
:080AE0000800013018000800B5
:080AE8001700F2000408F00001
:100AF0000008720284000008F10070088400F00110
:0A0B00007108800072088631032E90
:060B0A0023009D1C8A2D52
:100B10001D121D161D1D8E2D9D139D172000911E4B
:0A0B20008F2D2300190818000800AB
:060B2A001300803A031DD8
:100B3000A02D13007F39003A031DA12D0130A22DF5
:080B40008403003018000800D6
:080B48002400CC011300CB00D6
:100B50001300CA004B08CA02031CB02DCC0AAB2DEF
:060B60004C08180008001B
:0A0B66002400CC011300CB001300A3
:100B7000CA004B08CA02031CBF2DCC0ABA2D4A0773
:040B80001800080051
:0C0B840013002400A0001300A2001800C1
:0E0B900020081800220818002008180008008D
:020B9E00F8015C
:100BA0001F30840000308500353086000230870019
:060BB000F0018531312D3A
:0A0BB60013002400CA000301000729
:0A0BC000CA03031DDF2D80000800AA
:060BCA00130000060130DB
:0A0BD000031D003084031800080024
:060BDA00130023009A0045
:080BE0002000111EF12D080098
:080BE80013000004840318004F
:020BF0000800FB
:0A0BF2001300000784031800080038
:040BFC008009800AE2
:020C00000800EA
:040C0200840308005F
:040C06001C000800C6
:040C0A0017000800C7
:020000040001F9
:02000E00A4C983
:02001000FFDF10
:00000001FF
