:020000040000FA
:060000008B138A11F62AA1
:08000800F700030EF8000408E4
:10001000F9000A08FE007608FA00FB0A8A11831329
:100020000408F008031D70088400831203130C1CDD
:100030003C280C1001308A11BC228A11FF308A1131
:10004000BC228A11831603133A088A11BC228A1132
:10005000A1228A11FF228A11000884038316031348
:10006000BA00831603133A088A11BC228A110008C9
:100070008403831203138700FB017A08F6007E08CD
:100080008A0079088400780E8300F70E770E090045
:040090000034003404
:0C00940000308A11BC228A11000884038D
:1000A00083160313BA0070308A11BC228A1100082B
:1000B0008403831603138F0000308A11BC228A1137
:1000C0000008840383160313870001308A11BC22C1
:1000D0008A1106308A11BC228A1105308A11BC228D
:1000E0008A1104308A11BC228A1102308A11BC2282
:1000F0008A1103308A11BC228A118312031310085B
:100100008A11BC228A1153218A1153218A11DA20C3
:100110008A11DA208A1153218A1153218A11000889
:10012000840383120313900000308A11BC228A11C9
:10013000831603130C088A11BC228A11DA208A1153
:1001400000088403831603138C0006308A11BC2236
:100150008A11831203130B088A11BC228A11DA2038
:100160008A1100088403831203138B0000308A1164
:10017000BC228A118312031310088A11BC228A112F
:10018000DA208A11000884038312031390000730D9
:100190008A11BC228A11831203130B088A11BC2214
:1001A0008A11DA208A1100088403831203138B005A
:0401B000D828D9284A
:0C01B400FB0803191829000884038316B7
:1001C0000313B40000088403003A031DEA2834082E
:1001D00001381529013A031DF02834080238152981
:1001E000013A023A031DF728340804381529023A67
:1001F000033A031DFE28340808381529033A043A47
:10020000031D0529340810381529043A053A031D41
:100210000C29340820381529053A063A031D1329FC
:1002200034084038152934088038840A80000800D2
:100230000008840383160313B50000088403003A02
:10024000031D2529350801385029013A031D2B29A2
:10025000350802385029013A023A031D322935087F
:1002600004385029023A033A031D39293508083861
:100270005029033A043A031D402935081038502903
:10028000043A053A031D4729350820385029053A14
:10029000063A031D4E293508403850293508803864
:0602A000840A8000080042
:0A02A600FB080319912900088403E6
:1002B00083160313B40000088403003A031D632966
:1002C0003408FE398E29013A031D69293408FD39A5
:1002D0008E29013A023A031D70293408FB398E2910
:1002E000023A033A031D77293408F7398E29033A75
:1002F000043A031D7E293408EF398E29043A053A61
:10030000031D85293408DF398E29053A063A031D75
:100310008C293408BF398E2934087F39840A80003B
:1003200008000008840383160313B5000008840343
:10033000003A031D9E293508FE39C929013A031DDB
:10034000A4293508FD39C929013A023A031DAB2910
:100350003508FB39C929023A033A031DB229350889
:10036000F739C929033A043A031DB9293508EF3989
:10037000C929043A053A031DC0293508DF39C929BE
:10038000053A063A031DC7293508BF39C92935087A
:080390007F39840A8000080097
:080398008313FB080319DE29A1
:1003A0000408F1007608840000088403F3000408C0
:1003B000F60071088400F1017308EB290408F000CD
:1003C0007608840000088403F2000408F600700830
:1003D0008400F00172088313FB08031DFF29F40059
:1003E0000408F0000008740284000008F20070089D
:1003F0008400F0017208800074088A11822AF500D6
:100400000408F1000008750284000008F300710878
:0E0410008400F1017308800075088A11822AA9
:02041E00FB08D9
:100420000319252A83160313B80100088403B600B4
:1004300000088403B4003608B402031C212AB80A59
:100440001C2A3808840A8000080083160313B901A7
:1004500000088403B70000088403B5003708B5021C
:10046000031C342AB90A2F2A3908840A800008009C
:10047000FB0803194E2A83160313B80100088403EE
:10048000B60000088403B4003608B402031C4A2AEC
:10049000B80A452A3407840A80000800831603132B
:1004A000B90100088403B70000088403B5003708C9
:1004B000B502031C5D2AB90A582A3507840A800050
:0204C000080032
:0E04C2008313FB080319732A0408F10076085F
:1004D000840000088403F3000408F6007108840017
:1004E000F1017308802A0408F000760884000008EF
:1004F0008403F2000408F60070088400F00172081A
:040500008313080059
:0C0504008313FB080319932AF30004087A
:10051000F100760884007308F60A840A80007108E6
:100520008400F1019F2AF2000408F000760884009C
:100530007208F60A840A800070088400F0018313B0
:020540000800B1
:0E054200FB080319B02A000884038316031374
:10055000B40003010007B403031DAA2A80000800A9
:100560000008840383160313B50003010007B503D5
:08057000031DB62A80000800FB
:08057800840A80000408203C05
:100580000319C42A0318CB2A0408013E703C031C3B
:10059000CB2A000808008B1384032130840A8000D2
:0805A0008A11D4228A11CD2A30
:0805A800000884038312031311
:1005B0000C1ED82A831203139900831203130C1EF6
:0405C000DF2A080026
:0C05C4000008840300060130031D003015
:0805D0008403840A8000080086
:0805D800831203138C1EEE2AAE
:0C05E000831203131A08840A800008002C
:0405EC00FB011F30C0
:0E05F00084009F30F600F00183138A114A2820
:0205FE000008F3
:0C060000840300078403840A80000800C3
:04060C008009800AD7
:020610000800E0
:040612008403080055
:02400E00C433B9
:00000001FF
