:020000040000FA
:060000008B1382313A2A45
:08000800FB0A80310408F00836
:10001000031D700884002000111C2B2811100C30C7
:10002000823124228031FF30823124228031240029
:100030003A088231242282310D22823169228031B4
:1000400013002400BA0024003A08823124228031AF
:0A005000130020008D00FB010900E1
:04005A00003400343A
:02005E00003070
:1000600082312422803113002400BA0070308231A2
:1000700024228031F7308231242280312100190876
:100080008231242282315F22823164228031130046
:100090002100990000308231242280311300210098
:1000A0008D000030823124228031130023008D0026
:1000B0000030823124228031130020008D00063070
:1000C0008231242280310730823124228031053070
:1000D0008231242280310430823124228031023066
:1000E0008231242280310330823124228031200069
:1000F0001808823124228131362181313621803124
:10010000C5208031C52081313621813136218031B1
:100110001300200098000030823124228031210019
:100120001108823124228031C52080311300210042
:100130009100063082312422803120000B08823168
:1001400024228031C5208031130020008B00003034
:10015000823124228031200018088231242280310B
:10016000C5208031130020009800073082312422FE
:10017000803120000B08823124228031C52080315B
:0A018000130020008B00C328C428E0
:06018A00FB080319FF2829
:1001900013002400B4001300003A031DD2283408D1
:1001A0000138FD28013A031DD82834080238FD28FB
:1001B000013A023A031DDF2834080438FD28023AC8
:1001C000033A031DE62834080838FD28033A043AA8
:1001D000031DED2834081038FD28043A053A031DA4
:1001E000F42834082038FD28053A063A031DFB2878
:1001F00034084038FD2834088038180008001300FF
:100200002400B5001300003A031D09293508013800
:100210003429013A031D0F29350802383429013ADF
:10022000023A031D1629350804383429023A033AE4
:10023000031D1D29350808383429033A043A031DE3
:100240002429350810383429043A053A031D2B298E
:10025000350820383429053A063A031D3229350875
:0C026000403834293508803818000800A8
:04026C00FB0803196F
:10027000702913002400B4001300003A031D432921
:100280003408FE396E29013A031D49293408FD3925
:100290006E29013A023A031D50293408FB396E29B0
:1002A000023A033A031D57293408F7396E29033AF5
:1002B000043A031D5E293408EF396E29043A053AE1
:1002C000031D65293408DF396E29053A063A031DF6
:1002D0006C293408BF396E2934087F3918000800AA
:1002E00013002400B5001300003A031D7A293508D5
:1002F000FE39A529013A031D80293508FD39A529B4
:10030000013A023A031D87293508FB39A529023A2B
:10031000033A031D8E293508F739A529033A043A13
:10032000031D95293508EF39A529043A053A031D1F
:100330009C293508DF39A529053A063A031DA3296A
:0E0340003508BF39A52935087F391800080097
:02034E00170096
:10035000FB08031DBB29F4000408F0000008740228
:1003600084000008F20070088400F0017208800028
:1003700074088231732AF5000408F1000008750240
:1003800084000008F30071088400F1017308800004
:0603900075088231732A9A
:0A039600FB080319DD292400B8015B
:1003A0001300B6001300B4003608B402031CDA29A7
:1003B000B80AD5293808180008002400B90113002C
:1003C000B7001300B5003708B502031CE929B90AC4
:0803D000E429390818000800B7
:0803D800FB080319FE292400B3
:1003E000B8011300B6001300B4003608B402031CB1
:1003F000FB29B80AF6293407180008002400B901BF
:100400001300B7001300B5003708B502031C0A2A11
:0A041000B90A052A35071800080094
:06041A00FB0803191A2A79
:1004200013002400B40003010007B403031D142AC1
:100430008000080013002400B50003010007B50385
:08044000031D1E2A80000800C4
:0804480018000408203C031910
:100450002B2A0318322A0408013E703C031C322A5E
:10046000000808008B1384032130180082314622D3
:040470008231342A77
:0C047400FB011F308400003085001F30A9
:0C048000860002308700F00180312F2838
:04048C001300200039
:10049000111E482A23009A002000111E4D2A080030
:1004A000130000060130031D00308403180008000B
:0E04B0002000911A592A23001908180008008C
:0204BE00130029
:0804C000000584031800080088
:0804C800130000048403180076
:0204D000080022
:0A04D200130000078403180008005F
:0404DC008009800A09
:0204E000080012
:0404E2008403080087
:0404E6001C000800EE
:0404EA0017000800EF
:020000040001F9
:02000E00A4C983
:02001000FFFFF0
:00000001FF
