:020000040000FA
:060000008B138231212A5E
:04000600003400348E
:06000A0070308131B921C4
:100010008031F7308131B9218031210019088131D7
:10002000B92182314F2282315422803113002100C4
:10003000990004308131B921803123001D088131BC
:10004000B921813104218031130023009D00023049
:100050008131B921803123001E088131B9218131DC
:1000600004218031130023009E0003308131B92127
:10007000803123001F088131B92181310421803171
:10008000130023009F0040308131B92180311300DB
:1000900023009B0003308131B921803113002300FC
:1000A0009C0006308131B921803105308131B92180
:1000B000803104308131B921803123001E08813123
:1000C000B92181313B218131042181313B218031B2
:1000D000130023009E0004308131B92180312300B8
:1000E0001F088131B921813104218031130023009F
:1000F0009F0007308131B921803123001D088131F3
:10010000B921813104218031130023009D00053085
:100110008131B921803121000D088131B92181312E
:100120003B218031130021008D0005308131B92140
:10013000803123000D088131B92181313B2180318B
:10014000130023008D0001308131B921803123005B
:100150000D088131B92181313B2180311300230009
:100160008D0000308131B921803122001E0881319B
:10017000B921813104218031130022009E00043016
:100180008131B921803123001F088131B9218131AA
:100190003B218031130023009F002C308131B92195
:1001A00080318C308131B9218131CF21803157307C
:1001B0008131B92182314822803152308131B921D7
:1001C0008231482280314F308131B9218231482239
:1001D000803154308131B92182314822803145301B
:1001E0008131B9218231482280310D308131B921EC
:1001F0008231482280310A308131B921823148224E
:080200008131A32180310329A3
:0802080013002400B4001300F0
:10021000003A031D0E29340801383929013A031D1B
:100220001429340802383929013A023A031D1B29DE
:10023000340804383929023A033A031D22293408C4
:1002400008383929033A043A031D2929340810389B
:100250003929043A053A031D302934082038392950
:10026000053A063A031D372934084038392934083D
:06027000803818000800B0
:0A02760013002400B4001300003A46
:10028000031D45293408FE397029013A031D4B2905
:100290003408FD397029013A023A031D5229340805
:1002A000FB397029023A033A031D59293408F739FA
:1002B0007029033A043A031D60293408EF39702984
:1002C000043A053A031D67293408DF397029053AD5
:1002D000063A031D6E293408BF39702934087F3966
:0402E00018000800FA
:0C02E40013002400BA0018006430180059
:1002F0008231032281311300303E180082314822BE
:10030000813124003A08180064301800823112222A
:1003100081310A3018008231032281311300303ECE
:10032000180082314822813124003A0818000A302E
:1003300018008231122281311300303E18008231C0
:0603400048228131080093
:0A0346002C308131B92182313722B9
:100350008131722181310D308131B92182314822C0
:1003600081310A308131B921823148228131A3297A
:02037000B829AA
:0E03720018000408203C0319C0290318C729ED
:100380000408013E703C031CC729000808008B13B9
:0E039000840321301800823148228131C929AE
:02039E0023003A
:1003A00013009300130091001513951315158B136B
:1003B00055309600AA30960095148B171511951894
:0403C000DE2908002A
:0C03C4001700F2000408F00000087202AC
:1003D00084000008F10070088400F00171088000BA
:0603E00072088231632A5D
:0A03E60023009D1CF8291D121D16AE
:1003F0001D1DFC299D139D172000911EFD29230022
:06040000190818000800B5
:0A0406002400B6011300B500130036
:10041000B4003508B402031C0F2AB60A0A2A3608AB
:0404200018000800B8
:0C0424002400B6011300B5001300B40062
:100430003508B402031C1E2AB60A192A340718000C
:020440000800B2
:0E044200F8011F308400003085001F30860056
:0A04500002308700F001803105281A
:06045A0013002400B400B1
:0E04600003010007B403031D312A80000800C9
:02046E00230069
:1004700013009100151395131514130818000800A4
:10048000130000060130031D00308403180008002B
:0E049000130023009A002000111E4C2A0800C1
:02049E00130049
:0804A0000005840318000800A8
:0804A800130000048403180096
:0204B000080042
:0A04B200130000078403180008007F
:0404BC008009800A29
:0204C000080032
:0404C20084030800A7
:0404C6001C0008000E
:0404CA00170008000F
:020000040001F9
:02000E00A4C983
:02001000FFDF10
:00000001FF
