:020000040000FA
:060000008B138A11F52AA2
:04000600003400348E
:06000A0070308A115E2235
:100010008A11831603130F088A115E228A11FE22A9
:100020008A1100088403831603138F00CF308A11CE
:100030005E228A110008840383160313990000309E
:100040008A115E228A1100088403831603139A0022
:1000500004308A115E228A118316031318088A114C
:100060005E228A119A218A110008840383160313E1
:10007000980004308A115E228A1183120313180833
:100080008A115E228A119A218A1100088403831240
:100090000313980004308A115E228A11831203131D
:1000A00018088A115E228A115F218A1100088403D0
:1000B00083120313980007308A115E228A1183127B
:1000C000031318088A115E228A115F218A11000821
:1000D000840383120313980005308A115E228A116B
:1000E00006308A115E228A1102308A115E228A113C
:1000F0008316031318088A115E228A115F218A1160
:100100009A218A115F218A11000884038316031340
:10011000980003308A115E228A1104308A115E220F
:100120008A11831603131B088A115E228A115F212C
:100130008A115F218A1100088403831603139B0030
:1001400000308A115E228A1100088403831203178B
:100150009F0000308A115E228A11000884038312F6
:1001600003179E0005308A115E228A1104308A111D
:100170005E228A11831603130C088A115E228A11EB
:100180009A218A119A218A11000884038316031385
:100190008C0004308A115E228A11831603131B0817
:1001A0008A115E228A119A218A110008840383161B
:1001B00003139B004F308A115E228A11EB228A11B1
:1001C0004B308A115E228A11EB228A112C308A115F
:1001D0005E228A11DE308A115E228A1145228A113E
:1001E00057308A115E228A11EB228A1152308A110D
:1001F0005E228A11EB228A114F308A115E228A1107
:10020000EB228A1154308A115E228A11EB228A1164
:1002100045308A115E228A11EB228A110D308A1133
:100220005E228A11EB228A110A308A115E228A111B
:0A023000EB228A1176228A111C29A4
:06023A0000088403831696
:100240000313BA00840A80006430840A80008A1193
:10025000A0228A1100088403303E840A80008A119B
:10026000EB228A11831603133A08840A8000643053
:10027000840A80008A11B3228A110A30840A80001D
:100280008A11A0228A1100088403303E840A80006B
:100290008A11EB228A11831603133A08840A80001C
:1002A0000A30840A80008A11B3228A11000884036C
:0E02B000303E840A80008A11EB228A11080079
:0202BE00000836
:1002C000840383160313B40000088403003A031D5B
:1002D0006C29340801389729013A031D7229340822
:1002E00002389729013A023A031D79293408043863
:1002F0009729023A033A031D8029340808389729C0
:10030000033A043A031D8729340810389729043A20
:10031000053A031D8E29340820389729053A063AF4
:10032000031D952934084038972934088038840AF9
:040330008000080041
:0C0334000008840383160313B4000008C3
:100340008403003A031DA7293408FE39D229013A53
:10035000031DAD293408FD39D229013A023A031DA3
:10036000B4293408FB39D229023A033A031DBB29C8
:100370003408F739D229033A043A031DC229340854
:10038000EF39D229043A053A031DC9293408DF3967
:10039000D229053A063A031DD0293408BF39D2299B
:0A03A00034087F39840A8000080049
:0603AA008313F80803199B
:1003B000E7290408F1007308840000088403F200B0
:1003C0000408F30071088400F1017208F42904089C
:1003D000F0007308840000088403F1000408F300AF
:1003E00070088400F00171088313F2000408F00023
:1003F0000008720284000008F10070088400F00117
:0A0400007108800072088A11262A94
:06040A008313F80803193A
:10041000172A0408F1007308840000088403F2001E
:100420000408F30071088400F1017208242A04080A
:10043000F0007308840000088403F1000408F3004E
:0C04400070088400F001710883130800AC
:04044C008313F80816
:100450000319372AF2000408F100730884007208B7
:10046000F30A840A800071088400F101432AF10034
:100470000408F000730884007108F30A840A8000FD
:0A04800070088400F00183130800E7
:06048A0000088403831248
:1004900003178C0000088403831203178D00831652
:1004A00003178C130C158B138B1B532A55308D009F
:0C04B000AA308D008C148B170C11080072
:0404BC00840A80002E
:1004C0000408203C0319662A03186D2A0408013E1B
:1004D000703C031C6D2A000808008B138403213034
:0C04E000840A80008A11EB228A116F2A26
:0404EC002C308A1115
:1004F0005E228A11C6228A111D218A110D308A11AD
:100500005E228A11EB228A110A308A115E228A1138
:08051000EB228A11762A8B2AE6
:0805180083120313981C922AC0
:1005200018121816181D962A981398178312031379
:100530008C1E982A831203131A08840A800008006C
:1005400083160313B60100088403B5000008840372
:10055000B4003508B402031CAF2AB60AAA2A36082A
:06056000840A800008007F
:0A05660083160313B6010008840396
:10057000B50000088403B4003508B402031CC22A85
:0C058000B60ABD2A3407840A8000080077
:04058C0000088403DC
:10059000831203178D00831603178C130C14831218
:0A05A00003170C08840A800008000D
:0605AA0000088403831623
:1005B0000313B40003010007B403031DDB2A80000A
:0205C000080031
:0E05C2000008840300060130031D003084038E
:0605D000840A800008000F
:0A05D6000008840383120313990048
:0A05E000831203130C1EF22A080018
:0605EA00F8011F3084003F
:0C05F0009F30F300F00183138A110528EE
:0405FC00000884036C
:0A06000000048403840A800008004F
:06060A0000088403000754
:080610008403840A8000080045
:060618008009800A0800C1
:02061E00840353
:020620000800D0
:02400E00C433B9
:00000001FF
