:020000040000FA
:060000008B138A11732A24
:04000600003400348E
:06000A0070308A110B2288
:100010008A11831603130F088A110B228A117C227E
:100020008A1100088403831603138F0011308A118C
:100030000B228A11000884038316031399000030F1
:100040008A110B228A1100088403831603139A0075
:1000500004308A110B228A118316031318088A119F
:100060000B228A1160218A1100088403831603136E
:10007000980004308A110B228A1183120313180886
:100080008A110B228A1160218A11000884038312CD
:100090000313980004308A110B228A118312031370
:1000A00018088A110B228A1125218A11000884035D
:1000B00083120313980007308A110B228A118312CE
:1000C000031318088A110B228A1125218A110008AE
:1000D000840383120313980005308A110B228A11BE
:1000E00006308A110B228A1102308A110B228A11E2
:1000F0008316031318088A110B228A1125218A11ED
:1001000060218A1125218A110008840383160313B4
:10011000980003308A110B228A1104308A110B22B5
:100120008A11831603131B088A110B228A112521B9
:100130008A1125218A1100088403831603139B006A
:1001400000308A110B228A110008840383120317DE
:100150009F0000308A110B228A1100088403831249
:1001600003179E0005308A110B228A1104308A1170
:100170000B228A11831603130C088A110B228A1191
:1001800060218A1160218A110008840383160313F9
:100190008C000D308A110B228A1169228A110A30D3
:1001A0008A110B228A1169228A1148308A110B2286
:1001B0008A1169228A1165308A110B228A116922FB
:1001C0008A116C308A110B228A1169228A116C30D3
:1001D0008A110B228A1169228A116F308A110B222F
:1001E0008A1169228A112C308A110B228A11692204
:1001F0008A1120308A110B228A1169228A117730E4
:100200008A110B228A1169228A116F308A110B22FE
:100210008A1169228A1172308A110B228A1169228D
:100220008A116C308A110B228A1169228A1164307A
:100230008A110B228A1169228A1121308A110B221C
:0A0240008A1169228A11232924295A
:06024A0000088403831686
:100250000313B40000088403003A031D3229340854
:1002600001385D29013A031D3829340802385D2917
:10027000013A023A031D3F29340804385D29023A45
:10028000033A031D4629340808385D29033A043A25
:10029000031D4D29340810385D29043A053A031D21
:1002A0005429340820385D29053A063A031D5B2994
:1002B000340840385D2934088038840A80000800FA
:1002C0000008840383160313B40000088403003A73
:1002D000031D6D293408FE399829013A031D73293D
:1002E0003408FD399829013A023A031D7A29340865
:1002F000FB399829023A033A031D81293408F7395A
:100300009829033A043A031D88293408EF399829BB
:10031000043A053A031D8F293408DF399829053A34
:10032000063A031D96293408BF39982934087F39C5
:06033000840A80000800B1
:0A0336008313F8080319AD29040829
:10034000F1007308840000088403F2000408F3003D
:1003500071088400F1017208BA290408F0007308DA
:10036000840000088403F1000408F300700884008E
:10037000F00171088313F2000408F0000008720213
:1003800084000008F10070088400F001710880000A
:0603900072088A11EC293D
:0A0396008313F8080319DD29040899
:1003A000F1007308840000088403F2000408F300DD
:1003B00071088400F1017208EA290408F00073084A
:1003C000840000088403F1000408F300700884002E
:0803D000F0017108831308001D
:0803D8008313F8080319FD2945
:1003E000F2000408F100730884007208F30A840A1A
:1003F000800071088400F101092AF1000408F0006E
:10040000730884007108F30A840A8000700884006D
:06041000F0018313080057
:0A041600840A80000408203C03194A
:10042000132A03181A2A0408013E703C031C1A2AD6
:10043000000808008B1384032130840A80008A118D
:0604400069228A111C2A4A
:0A04460083160313B60100088403B7
:10045000B50000088403B4003508B402031C322A36
:0C046000B60A2D2A3608840A8000080025
:04046C0083160313DD
:10047000B60100088403B50000088403B400350801
:10048000B402031C452AB60A402A3407840A8000B5
:02049000080062
:0E0492000008840383160313B400030100075F
:0A04A000B403031D4F2A800008007A
:0604AA00000884030006B7
:0E04B0000130031D00308403840A8000080020
:0204BE008312A7
:1004C00003138C1E612A831203131A08840A800006
:0204D000080022
:0E04D20000088403831203139900831203139E
:0604E0000C1E702A08004A
:0A04E600F8011F3084009F30F3007E
:0804F000F00183138A110528B5
:0804F8000008840300048403E2
:06050000840A80000800DF
:0A0506000008840300078403840A40
:04051000800008005F
:060514008009800A0800C6
:04051A00840308004E
:02400E00C433B9
:00000001FF
