:020000040000FA
:060000008B138631A72ED0
:04000600003400348E
:06000A0004088631E02627
:10001000803100308631502686317826803100309C
:10002000863150268631BD2680311300003A0319EF
:1000300031280230863150268031033086315026F7
:100040008031043086315026803121001D088631F0
:1000500050268531C7258531C7258531C725803193
:10006000D128003086315026863178268031013003
:10007000863150268631BD2680311300003A03199F
:10008000592802308631502680310330863150267F
:100090008031043086315026803121001D088631A0
:1000A00050268531C7258531C7258531902580317A
:1000B000D1280030863150268631782680310230B2
:1000C000863150268631BD2680311300003A03194F
:1000D0008128023086315026803103308631502607
:1000E0008031043086315026803121001D08863150
:1000F00050268531C725853190258531C72580312A
:10010000D128003086315026863178268031033060
:10011000863150268631BD2680311300003A0319FE
:10012000A92802308631502680310330863150268E
:100130008031043086315026803121001D088631FF
:1001400050268531C7258531902585319025803110
:10015000D12800308631502686317826803104300F
:10016000863150268631BD2680311300003A0319AE
:10017000D128023086315026803103308631502616
:100180008031043086315026803121001D088631AF
:100190005026853190258531C7258531C725803189
:1001A000D128130021009D00003086315026803177
:1001B00021001D088631502685319025803113009D
:1001C00021009D008631DE268031013086315026A7
:1001D0008031023086315026803100308631502601
:1001E00080310730863150268031063086315026E6
:1001F00080310530863150268031043086315026DA
:10020000803121001E08863150268531C725853171
:10021000902585319025853190258531C7258531FB
:10022000C7258531C7258031130021009E0000308D
:1002300086315026803123000C08863150268531C6
:1002400090258031130023008C0001308631502628
:10025000803121001D08863150268531902580315E
:10026000130021009D0086316626803100308631E2
:100270005026803108308631502680310330863157
:100280005026803121001C08863150268631CC262C
:100290008431F12484310024803121001B0886310F
:1002A00050268431F12481316E218631E22680315D
:1002B000F90013008631E026803113008631E026F4
:1002C00080317908840084038631E2268631502605
:0C02D0008631E22686315026803108007D
:0402DC0013002400E7
:1002E000B20013002400B30013002400B400130074
:1002F0002400B5002610AF01B101B51B3114B31BAA
:10030000B114B21B8B29B41F86299B2934083202F1
:10031000031C8D299B29B41B86293208B406340896
:10032000B2063208B4063308B5063508B3063308FA
:10033000B5062B149C29AB0135087F39B50033086D
:100340007F39B300A9013508803E0318A90AAD0022
:10035000A8013308803E0318A80AAC00AA01A40132
:10036000340832060319BD290310AA0C0310AD0C82
:10037000031CBB29AA17B40AB0292B1CC8292C08B6
:10038000AD062D08AC062C08AD062A08A400AA016B
:100390002400311CCF29B11CCF292614362A311C48
:1003A000002A2D082C02AF000318D8292614022A8F
:1003B000AF080319632AAF1BEC290310AF0DAA1F66
:1003C000E829AF03FF302F06031DE8292614022A6F
:1003D0000310AA0DB403DB29AA1FFF29AF03FF30C6
:1003E0002F06031DF5292614022A7F302F06031D30
:1003F000FF290310AF0DB4032A1BFF29AF0A632A9C
:10040000B11C362A2C082D02AF000318092A261425
:10041000D129AF080319632AAF1B1D2A0310AF0DA2
:10042000A41F192AAF03FF302F06031D192A261413
:10043000D1290310A40DB4030C2AA41F302AAF0342
:10044000FF302F06031D262A2614D1297F302F06C0
:10045000031D302A0310AF0DB403241B302AAF0A4A
:10046000632A2D082C02AF002614632AA0012D0850
:100470002C07AF00031C3D2AA00A2A0824070318F2
:10048000452A8039031D452A4A2AAF0AAF08031DB1
:100490004A2AA00AA0080319632AA2010310AD0C7E
:1004A000031822140310AA0C221C572AAA17A2010F
:1004B0000310AC0C031822140310A40C221C612A94
:1004C000AA17B40A362A2F08031D6B2A0030180019
:1004D00080301800752A2F08803EAF002618AF170D
:0C04E0002F081800240034081800080041
:0404EC0070308631B5
:1004F00050268231F730863150268231210019088A
:10050000863150268631CC268631D12682311300A1
:1005100021009900043086315026823123001D08C5
:1005200086315026853190258231130023009D00AD
:10053000023086315026823123001E088631502633
:10054000853190258231130023009E0003308631CF
:100550005026823123001F08863150268531902590
:100560008231130023009F004430863150268231AF
:10057000130023009B000030863150268231130087
:1005800023009C00063086315026823105308631AA
:1005900050268231043086315026823123001E08D5
:1005A000863150268531C725853190258531C7256F
:1005B0008231130023009E000430863150268231A0
:1005C00023001F0886315026853190258231130083
:1005D00023009F00073086315026823123001D08FA
:1005E00086315026853190258231130023009D00ED
:1005F000053086315026823121000D088631502683
:100600008531C7258231130021008D0005308631E8
:100610005026823123000D08863150268531C725AA
:100620008231130023008D00003086315026823144
:1006300022001E0886315026853190258231130014
:1006400022009E008431822486312F268231272B7E
:1006500013002400B200B10113002400B300B31B47
:10066000B114B31313002400B40013002400B50028
:10067000B51B3114B5133408B0003208B002AD0117
:100680003508803EB5003308803EB300AC00AB01B6
:10069000AA01A901A801A6012608103A0319852B71
:1006A00035088039A4000310A90D0310A80D031C00
:1006B0005A2BA90A0310B50D0310AB0D0318B50A88
:1006C000A4080319662BA80A0319A90AA201330872
:1006D0002802031C22142A08A9023308A80222189F
:1006E000A903A91F812B33082807A201031822148C
:1006F0002A08A9073308A8072218A90AFE30AB0563
:10070000832B0130AB04A60A4C2B2B08AF00AE01A3
:1007100035182E140310AC0CA00128082C02031865
:10072000932BAF0A2014AE080319A22B2F1C9E2B6B
:1007300020189E2B0310AF0CAF0AA02B0310AF0C98
:10074000AF17A32BB0032F08803EAD00AD1FAE2B1B
:10075000803EB0030310AF0D2F08A42BAF0031185B
:10076000B42BB11CB92BB62BB118B92B2F0880387C
:0E077000AF002F081800240030081800080001
:02077E001B302E
:1007800018008631C52683315B3018008631C526B6
:100790008531FE2583313B3018008631C5268531F1
:1007A000FE258331483018008631C5268331130079
:1007B0002400B900003A0319E72B2400BA00DB300B
:1007C00018008631C52683312400BA0BDF2B2400A4
:1007D000390880021300003A0319F82B2400BA00EC
:1007E000B03018008631C52683312400BA0BF02BB7
:0207F0000800FF
:0E07F2002000911EFA2B2300190818000800A1
:1008000013002400AE00803A031D0A2C7F3000053F
:1008100003195A2CAD0113002400AF00AF1BAD1417
:10082000AF1313002400B000803A031D1B2C7F304F
:10083000000503195C2C13002400B100B11B2D141A
:10084000B1133008AC002E08AC073108803E180008
:1008500024002F08803E1800612C13002400AB00F8
:10086000AB1F392C13002400AC0A8039031DAB0ADE
:10087000472C031013002400A0008039031D03142B
:100880002400AB0D200824004039031DAB0A2B08BF
:10089000803EAB002D184F2CAD1C542C512CAD18A4
:1008A000542C2B088038AB002B08180024002C088F
:1008B0001800602C1300130013008030180018007B
:1008C000080013002400A90013002400A800A401BC
:1008D000A601A201291C702C2808A6070318A40A47
:1008E0000310A90C0310A40CA60C0318A917A20A44
:1008F00008302206031D6A2C290818002400260847
:0409000018002D2C82
:0C0904001B3018008631C52684315B30A2
:1009100018008631C5268431323018008631C5264C
:1009200084314B3018008631C52684311B301800C5
:100930008631C52684315B3018008631C526843166
:100940004A3018008631C52684311B3018008631A4
:10095000C52684315B3018008631C526843131309C
:1009600018008631C52684314A3018008631C526E4
:1009700084311B3018008631C52684315B30180065
:100980008631C5268431323018008631C52684313F
:100990004B3018008631C52684311B301800863153
:1009A000C52684315B3018008631C52684314A3033
:1009B00018008631C52684311B3018008631C526C3
:1009C00084315B3018008631C526843131301800FF
:1009D0008631C52684314A3018008631C5268431D7
:0209E00008000D
:0E09E20013002400A000A01FFC2CA01320086E
:1009F000180007301800582D201F072D2400201341
:100A00000310A00D2008180006301800582DA01E55
:100A1000132D2400A0120310A00DA00D2008180013
:100A200005301800582D201E202D24002012031000
:100A3000A00DA00DA00D2008180004301800582D9E
:100A4000A01D2E2D2400A0110310A00DA00DA00D9F
:100A5000A00D2008180003301800582D201D3D2D32
:100A6000240020110310A00DA00DA00DA00DA00DBD
:100A70002008180002301800582DA01C4D2D24000D
:100A8000A0100310A00DA00DA00DA00DA00DA00D95
:100A90002008180001301800582D201C542D00305B
:100AA000180000301800582D003018008030180051
:020AB00008003C
:0E0AB20013002400A400A601A41F612D130050
:100AC0008C2D1300803E2400A6002408073CA200C1
:100AD00085308A006F30220703188A0A82008C2D25
:100AE000892D862D832D802D7D2D7A2D772D031038
:100AF000A60CA00C0310A60CA00C0310A60CA00CB6
:100B00000310A60CA00C0310A60CA00C0310A60C3E
:100B1000A00C0310A60CA00C240026081800080046
:100B200013002400B6001300003A031D9A2D360866
:100B30000138C52D013A031DA02D36080238C52DF8
:100B4000013A023A031DA72D36080438C52D023A92
:100B5000033A031DAE2D36080838C52D033A043A72
:100B6000031DB52D36081038C52D043A053A031D6E
:100B7000BC2D36082038C52D053A063A031DC32D75
:0E0B800036084038C52D3608803818000800A9
:020B8E00130052
:100B90002400B6001300003A031DD12D3608FE399B
:100BA000FC2D013A031DD72D3608FD39FC2D013AE5
:100BB000023A031DDE2D3608FB39FC2D023A033ABA
:100BC000031DE52D3608F739FC2D033A043A031DC1
:100BD000EC2D3608EF39FC2D043A053A031DF32DB0
:100BE0003608DF39FC2D053A063A031DFA2D360882
:0C0BF000BF39FC2D36087F3918000800C2
:040BFC0013002400BE
:100C0000BC00180064301800863189268531130035
:100C1000303E18008631C526853124003C08180076
:100C2000643018008631982685310A3018008631E4
:100C3000892685311300303E18008631C52685315E
:100C400024003C0818000A301800863198268531A7
:0E0C50001300303E18008631C526853108009D
:020C5E0008305C
:100C6000863150268631003086315026803105206D
:100C70008631003086315026863107308631502645
:100C8000833128238531592586310A308631502613
:100C900086310A30863150268331BF2386312F2E8C
:100CA00018000408A03C0319572E03185E2E0408F0
:100CB000013EF03C031C5E2E000808008B138403E9
:0C0CC000213018008631C5268631602ED8
:040CCC00023086313B
:100CD0005026863121001D08863150268631CC26CB
:100CE00086311300003A0319762E662E0800772EFF
:100CF0001700F2000408F0000008720284000008E7
:100D0000F10070088400F0017108800072088631DB
:020D1000E02ED3
:0E0D12002400B8011300B7001300B600370824
:100D2000B602031C952EB80A902E38081800080049
:100D30002400B8011300B7001300B6003708B6024C
:0E0D4000031CA42EB80A9F2E360718000800C8
:020D4E00F801AA
:100D50009F308400003085001F30860000308700FF
:060D6000F0018231762A49
:0A0D660013002400B600030100078B
:0A0D7000B603031DB72E8000080033
:060D7A0013000006013029
:0A0D8000031D003084031800080072
:060D8A00130023009A0093
:080D90002000111EC92E08000D
:080D980013000005840318009C
:020DA000080049
:0A0DA2001300000484031800080089
:040DAC001300000729
:060DB00084031800080096
:060DB6008009800A08001C
:040DBC0084030800A4
:040DC0001C0008000B
:040DC400170008000C
:020000040001F9
:02000E00A4C983
:02001000FFFFF0
:00000001FF
