:020000040000FA
:060000008B138A116F2A28
:04000600003400348E
:06000A0070308A11F9219B
:100010008A11831603130F088A11F9218A11782295
:100020008A1100088403831603138F0011308A118C
:10003000F9218A1100088403831603139900003004
:100040008A11F9218A1100088403831603139A0088
:1000500004308A11F9218A118316031318088A11B2
:10006000F9218A110B218A110008840383160313D6
:10007000980004308A11F9218A1183120313180899
:100080008A11F9218A110B218A1100088403831235
:100090000313980004308A11F9218A118312031383
:1000A00018088A11F9218A11D0208A1100088403C6
:1000B00083120313980007308A11F9218A118312E1
:1000C000031318088A11F9218A11D0208A11000817
:1000D000840383120313980005308A11F9218A11D1
:1000E00006308A11F9218A1102308A11F9218A1108
:1000F0008316031318088A11F9218A11D0208A1156
:100100000B218A11D0208A1100088403831603135F
:10011000980003308A11F9218A1104308A11F921DB
:100120008A11831603131B088A11F9218A11D02022
:100130008A11D0208A1100088403831603139B00C0
:1001400000308A11F9218A110008840383120317F1
:100150009F0000308A11F9218A110008840383125C
:1001600003179E0005308A11F9218A1104308A1183
:10017000F9218A11831603130C088A11F9218A11B7
:100180000B218A110B218A110008840383160313A3
:100190008C0000308A11F9218A1137228A11CF2868
:1001A0000008840383160313B40000088403003A94
:1001B000031DDD28340801380829013A031DE3280E
:1001C000340802380829013A023A031DEA283408A3
:1001D00004380829023A033A031DF1283408083884
:1001E0000829033A043A031DF8283408103808296E
:1001F000043A053A031DFF28340820380829053A37
:10020000063A031D06293408403808293408803886
:06021000840A80000800D2
:0A0216000008840383160313B400EC
:1002200000088403003A031D18293408FE394329C5
:10023000013A031D1E293408FD394329013A023AC7
:10024000031D25293408FB394329023A033A031DCB
:100250002C293408F7394329033A043A031D33297A
:100260003408EF394329043A053A031D3A29340882
:10027000DF394329053A063A031D41293408BF39BD
:0C028000432934087F39840A80000800FC
:04028C008313F808D8
:10029000031958290408F100730884000008840336
:1002A000F2000408F30071088400F1017208652966
:1002B0000408F0007308840000088403F1000408B7
:1002C000F30070088400F00171088313F200040841
:1002D000F0000008720284000008F1007008840039
:0C02E000F0017108800072088A11BD292D
:0402EC0004088A1167
:1002F000BD218A1100308A11F9218A1146218A1103
:100300005A308A11F9218A1151228A110008840376
:10031000003A03198C299A2900308A11F9218A118F
:1003200046218A1101308A11F9218A117F228A110E
:08033000F3037629F303080032
:080338008313F8080319AE2934
:100340000408F1007308840000088403F200040824
:10035000F30071088400F1017208BB290408F00061
:100360007308840000088403F1000408F300700897
:0A0370008400F001710883130800F7
:06037A008313F8080319CB
:10038000CE29F2000408F100730884007208F30A11
:10039000840A800071088400F101DA29F100040860
:1003A000F000730884007108F30A840A8000700862
:0803B0008400F0018313080032
:0803B80004088A11BD218A111D
:1003C00065228A1101308A11F9218A1146218A1188
:1003D00000308A11F9218A1151228A110008840300
:1003E000003A0319F429F629F303DC29F303080082
:0203F000F829EA
:0E03F200840A80000408203C0319012A031825
:10040000082A0408013E703C031C082A0008080062
:100410008B1384032130840A80008A1165228A119B
:020420000A2AA6
:0E04220083160313B60100088403B50000081A
:100430008403B4003508B402031C202AB60A1B2A20
:080440003608840A8000080060
:0804480083160313B60100083E
:100450008403B50000088403B4003508B402031C0B
:0E046000332AB60A2E2A3407840A80000800C8
:02046E00040880
:100470008A11BD218A1141308A11F9218A11762110
:0A0480008A11DC218A11F303372AE8
:06048A0000088403831644
:100490000313B40003010007B403031D4B2A8000BB
:0204A000080052
:0E04A2000008840300060130031D00308403AF
:0604B000840A8000080030
:0A04B600831203138C1E5D2A8312CB
:0A04C00003131A08840A80000800E4
:0604CA0000088403831208
:0E04D00003139900831203130C1E6C2A0800FC
:0204DE00F80123
:1004E0001F3084009F30F300F00183138A11052828
:0E04F0000008840300048403840A80000800CE
:0204FE000008F4
:0C050000840300078403840A80000800C4
:04050C008009800AD8
:020510000800E1
:040512008403080056
:02400E00C433B9
:00000001FF
