:020000040000FA
:060000008B138131D629AB
:04000600003400348E
:06000A00703081318321FA
:100010008031F7308131832180312100190881310D
:100020008321823102228231072280311300210094
:100030009900043081318321803123001D088131F2
:1000400083218031D4208031130023009D000230B1
:1000500081318321803123001E0881318321803149
:10006000D4208031130023009E000330813183218E
:10007000803123001F08813183218031D4208031D9
:10008000130023009F004030813183218031130011
:1000900023009B0003308131832180311300230032
:1000A0009C000630813183218031053081318321EC
:1000B0008031043081318321803123001E08813159
:1000C000832181310B218031D42081310B2180317A
:1000D000130023009E0004308131832180312300EE
:1000E0001F08813183218031D42080311300230007
:1000F0009F00073081318321803123001D08813129
:1001000083218031D4208031130023009D000530ED
:1001100081318321803121000D088131832181319A
:100120000B218031130021008D00053081318321A6
:10013000803123000D088131832181310B218031F1
:10014000130023008D000130813183218031230091
:100150000D088131832181310B218031130023006F
:100160008D00003081318321803122001E088131D1
:1001700083218031D4208031130022009E0004307E
:1001800081318321803123001F0881318321813116
:100190000B218031130023009F0000308131832127
:0801A0008131C8218031D32810
:0801A80013002400B400130051
:1001B000003A031DDE28340801380929013A031DDD
:1001C000E428340802380929013A023A031DEB28D1
:1001D000340804380929023A033A031DF228340886
:1001E00008380929033A043A031DF928340810385D
:1001F0000929043A053A031D002934082038092941
:10020000053A063A031D07293408403809293408FD
:0602100080381800080010
:0A02160013002400B4001300003AA6
:10022000031D15293408FE394029013A031D1B29F5
:100230003408FD394029013A023A031D22293408C5
:10024000FB394029023A033A031D29293408F739BA
:100250004029033A043A031D30293408EF39402974
:10026000043A053A031D37293408DF394029053A95
:10027000063A031D3E293408BF39402934087F3926
:04028000180008005A
:0C028400040882311622813100308131E3
:1002900083218131992181315A308131832181310A
:1002A000EC2181311300003A0319572965290030E8
:1002B0008131832181319921813101308131832143
:0E02C00082310C228131860342298603080018
:0202CE00040822
:1002D000823116228131FB2181310130813183212C
:1002E0008131992181310030813183218131EC21AB
:1002F00081311300003A03197E298029860367297A
:06030000860308008229BB
:0A03060018000408203C03198A299E
:10031000031891290408013E703C031C9129000830
:1003200008008B138403213018008131FB218131B7
:0203300093290F
:0E0332001700F2000408F000000872028400B8
:100340000008F10070088400F00171088000720854
:040350008231162AB6
:0C0354002400B6011300B5001300B40033
:100360003508B402031CB629B60AB12936081800AC
:02037000080083
:0E0372002400B6011300B5001300B4003508D6
:10038000B402031CC529B60AC029340718000800A6
:10039000040882311622813141308131832181313B
:0C03A00042218131672181318603C82988
:0403AC00F8011F3005
:1003B0008400003085001F30860002308700F00185
:0403C000803105285B
:0C03C40013002400B40003010007B40380
:0803D000031DE629800008006E
:0803D800130000060130031DB3
:0803E00000308403180008003E
:0803E8002000911EF5292300FD
:0603F000190818000800C6
:0A03F600130023009A002000111EDE
:04040000FF290800C8
:0A040400130000058403180008002F
:02040E001300D9
:08041000000484031800080039
:08041800130000078403180023
:020420000800D2
:060422008009800A0800B9
:040428008403080041
:04042C001C000800A8
:0404300017000800A9
:020000040001F9
:02000E00A4C983
:02001000FFFFF0
:00000001FF
