:020000040000FA
:060000008B138231582A27
:08000800FB0A80310408F00836
:10001000031D700884002000111C502811100130AD
:1000200082314222803124003A08823142228231D8
:100030008722803113002400BA00323082314222FC
:10004000803124003A088231422282316E2280318E
:100050001300003A031950280030823142228031C7
:1000600013002400BA000830823142228031FF3070
:1000700082314222803124003B0882314222823187
:100080002B2282318722803113002400BB00240000
:100090003B08823142228031130020008D0050281D
:0400A000FB01090057
:0400A40000340034F0
:0800A800003082314222803158
:1000B00013002400BB000030823142228031130043
:1000C0002400BA007030823142228031F730823110
:1000D00042228031210019088231422282317D2260
:1000E0008231822280311300210099000030823158
:1000F00042228031130021008D00063082314222DD
:1001000080310730823142228031053082314222F3
:1001100080310430823142228031023082314222E9
:100120008031033082314222803120001808823130
:10013000422281315421813154218031E3208031A8
:10014000E32081315421813154218031130020007A
:100150009800003082314222803121001108823122
:1001600042228031E32080311300210091000630CB
:1001700082314222803120000B08823142228031BC
:10018000E3208031130020008B00003082314222B6
:10019000803120001808823142228031E3208031F2
:1001A0001300200098000730823142228031200065
:1001B0000B08823142228031E3208031130020007D
:0601C0008B00E128E2289B
:0A01C600FB0803191D291300240093
:1001D000B4001300003A031DF028340801381B292D
:1001E000013A031DF628340802381B29013A023A65
:1001F000031DFD28340804381B29023A033A031D65
:100200000429340808381B29033A043A031D0B2932
:10021000340810381B29043A053A031D1229340802
:1002200020381B29053A063A031D1929340840389D
:100230001B29340880381800080013002400B5007A
:100240001300003A031D2729350801385229013AC5
:10025000031D2D29350802385229013A023A031D9F
:100260003429350804385229023A033A031D3B2940
:10027000350808385229033A043A031D4229350843
:1002800010385229043A053A031D49293508203807
:100290005229053A063A031D50293508403852299B
:0802A000350880381800080041
:0802A800FB0803198E29130065
:1002B0002400B4001300003A031D61293408FE39FC
:1002C0008C29013A031D67293408FD398C29013A2C
:1002D000023A031D6E293408FB398C29023A033A8D
:1002E000031D75293408F7398C29033A043A031D94
:1002F0007C293408EF398C29043A053A031D8329F7
:100300003408DF398C29053A063A031D8A29340856
:10031000BF398C2934087F391800080013002400E5
:10032000B5001300003A031D98293508FE39C3298A
:10033000013A031D9E293508FD39C329013A023AC5
:10034000031DA5293508FB39C329023A033A031DC9
:10035000AC293508F739C329033A043A031DB329F8
:100360003508EF39C329043A053A031DBA2935087F
:10037000DF39C329053A063A031DC1293508BF39BB
:0A038000C32935087F391800080072
:06038A001700FB08031D33
:10039000D929F4000408F000000874028400000861
:1003A000F20070088400F001720880007408823145
:1003B000912AF5000408F100000875028400000885
:1003C000F30071088400F101730880007508823120
:0203D000912A70
:0E03D200FB080319FB292400B8011300B60034
:1003E0001300B4003608B402031CF829B80AF32934
:1003F0003808180008002400B9011300B7001300E2
:10040000B5003708B502031C072AB90A022A3908C1
:0404100018000800C8
:0C041400FB0803191C2A2400B801130087
:10042000B6001300B4003608B402031C192AB80A37
:10043000142A3407180008002400B9011300B7007B
:100440001300B5003708B502031C282AB90A232A6D
:060450003507180008004A
:0A045600FB080319382A13002400E4
:10046000B40003010007B403031D322A8000080012
:1004700013002400B50003010007B503031D3C2A47
:0404800080000800F0
:0C04840018000408203C0319492A031842
:10049000502A0408013E703C031C502A0008080042
:1004A0008B13840321301800823164228231522A56
:1004B000FB011F308400003085001F3086000230B1
:0804C0008700F001803154288F
:0804C80013002000111E662A3A
:0C04D00023009A002000111E6B2A080077
:0404DC001300000603
:0C04E0000130031D0030840318000800E8
:0404EC002000911E3D
:0A04F000772A2300190818000800FD
:0604FA001300000584035D
:0405000018000800D7
:0A050400130000048403180008002F
:02050E001300D8
:08051000000784031800080035
:060518008009800A0800C2
:02051E00840354
:020520000800D1
:040522001C000800B1
:0405260017000800B2
:020000040001F9
:02000E00A4C983
:02001000FFFFF0
:00000001FF
