:020000040000FA
:040000008B13DF2956
:040004000034003490
:08000800043079210230792156
:1000100083160313180879216520A02000088403A3
:100020008316031398000330792104307921831655
:1000300003131B08792165206520000884038316BB
:1000400003139B00043079218312031318087921CC
:10005000A020000884038312031398000430792140
:100060008312031318087921652000088403831282
:1000700003139800193079210008840383160313B1
:1000800099000030792100088403831603139A0035
:100090000530792106307921831603131808792158
:1000A000A0206520000884038316031398000730FE
:1000B000792183120313180879216520000884032D
:0A00C000831203139800DB2064286C
:0600CA0000088403831608
:1000D0000313B40000088403003A031D7228340897
:1000E00001389D28013A031D7828340802389D28DC
:1000F000013A023A031D7F28340804389D28023A49
:10010000033A031D8628340808389D28033A043A28
:10011000031D8D28340810389D28043A053A031D24
:100120009428340820389D28053A063A031D9B2858
:10013000340840389D2834088038840A800008003C
:100140000008840383160313B40000088403003AF4
:10015000031DAD283408FE39D828013A031DB32801
:100160003408FD39D828013A023A031DBA28340868
:10017000FB39D828023A033A031DC1283408F7395D
:10018000D828033A043A031DC8283408EF39D82880
:10019000043A053A031DCF283408DF39D828053A38
:1001A000063A031DD6283408BF39D82834087F39C9
:0601B000840A8000080033
:0A01B6000D307921D5210A3079219E
:1001C000D52148307921D52165307921D5216C3070
:1001D0007921D5216C307921D5216F307921D52134
:1001E0002C307921D52120307921D5217730792102
:1001F000D5216F307921D52172307921D5216C300C
:100200007921D52164307921D52121307921D52159
:0402100008000929B0
:0C0214008313F80803191C290408F100EA
:100220007308840000088403F2000408F3007108D6
:100230008400F101720829290408F0007308840081
:1002400000088403F1000408F30070088400F00142
:1002500071088313F2000408F000000872028400A1
:100260000008F10070088400F00171088000720835
:020270005A2909
:0E0272008313F80803194B290408F1007308E0
:10028000840000088403F2000408F300710884006D
:10029000F101720858290408F0007308840000086E
:1002A0008403F1000408F30070088400F001710871
:0402B00083130800AC
:0C02B4008313F80803196B29F2000408FA
:1002C000F100730884007208F30A840A8000710840
:1002D0008400F1017729F1000408F000730884001C
:1002E0007108F30A840A800070088400F001831307
:0202F000080004
:0E02F200840A80000408203C031981290318A7
:1003000088290408013E703C031C88290008080065
:0E0310008B1384032130840A8000D5218A29B2
:02031E00831644
:100320000313B60100088403B50000088403B40079
:100330003508B402031C9E29B60A99293608840A96
:040340008000080031
:0C03440083160313B60100088403B50003
:1003500000088403B4003508B402031CB129B60AAE
:0A036000AC293407840A800008006D
:06036A0000088403831665
:100370000313B40003010007B403031DBB2980006D
:02038000080073
:0E0382000008840300060130031D00308403D0
:06039000840A8000080051
:0A039600831203138C1ECD2983127D
:0A03A00003131A08840A8000080005
:0603AA0000088403831229
:0E03B00003139900831203130C1EDC290800AE
:0203BE00F80144
:0E03C0001F3084009F30F300F00183130428E7
:0203CE00000825
:0C03D000840300078403840A80000800F6
:0403DC008009800A0A
:0203E000080013
:0403E2008403080088
:02400E00C630BA
:00000001FF
