:020000040000FA
:060000008B138231812AFE
:08000800FB0A80310408F00836
:10001000031D700884002000111C1D2811100130E0
:1000200082315B22803120000C0882315B228131D9
:100030006D218031130020008C0027001608031961
:100040003228960120008D08013082315B228031F8
:1000500020000C0882315B228031FC2080311300AB
:0800600020008C00FB010900E7
:04006800003400342C
:04006C00703082313D
:100070005B228031F73082315B2280312100190808
:1000800082315B2282319F228231A422803113008F
:1000900021009900073082315B2280312100150850
:1000A00082315B2281316D21803113002100950066
:1000B000073082315B228031033082315B22803114
:1000C00020000B0882315B228031FC208031FC2033
:1000D0008031130020008B00103082315B22803190
:1000E000130027009400103082315B22803113000E
:1000F00021008D00003082315B228031130023000B
:100100008D00103082315B228031130024008D007D
:10011000003082315B228031130021008C000030DE
:1001200082315B228031130023008C000630823143
:100130005B228031073082315B2280310530823191
:100140005B228031043082315B2280310230823187
:100150005B228031033082315B228031200018081D
:1001600082315B2281316D2181316D218031FC2012
:100170008031FC2081316D2181316D21803113006E
:1001800020009800003082315B228031210011086C
:1001900082315B228031FC208031130021009100EC
:1001A000063082315B22803120000B0882315B22D5
:1001B0008031FC208031130020008B000030823120
:1001C0005B2280312000180882315B228031FC20C4
:1001D0008031130020009800073082315B2280318B
:1001E00020000B0882315B228031FC20803113001B
:0801F00020008B00FA28FB2817
:0801F800FB080319362913006E
:100200002400B4001300003A031D09293408013802
:100210003429013A031D0F29340802383429013AE0
:10022000023A031D1629340804383429023A033AE5
:10023000031D1D29340808383429033A043A031DE4
:100240002429340810383429043A053A031D2B298F
:10025000340820383429053A063A031D3229340877
:10026000403834293408803818000800130024006E
:10027000B5001300003A031D4029350801386B29E9
:10028000013A031D4629350802386B29013A023A22
:10029000031D4D29350804386B29023A033A031D22
:1002A0005429350808386B29033A043A031D5B29A1
:1002B000350810386B29043A053A031D62293508C0
:1002C00020386B29053A063A031D6929350840385C
:0A02D0006B2935088038180008007B
:0602DA00FB080319A7292F
:1002E00013002400B4001300003A031D7A293408D7
:1002F000FE39A529013A031D80293408FD39A529B5
:10030000013A023A031D87293408FB39A529023A2C
:10031000033A031D8E293408F739A529033A043A14
:10032000031D95293408EF39A529043A053A031D20
:100330009C293408DF39A529053A063A031DA3296B
:100340003408BF39A52934087F3918000800130084
:100350002400B5001300003A031DB1293508FE3909
:10036000DC29013A031DB7293508FD39DC29013A9A
:10037000023A031DBE293508FB39DC29023A033A4B
:10038000031DC5293508F739DC29033A043A031D52
:10039000CC293508EF39DC29043A053A031DD32965
:1003A0003508DF39DC29053A063A031DDA29350814
:0C03B000BF39DC2935087F39180008002F
:0403BC001700FB0823
:1003C000031DF229F4000408F00000087402840000
:1003D0000008F20070088400F001720880007408C0
:1003E0008231B32AF5000408F10000087502840088
:1003F0000008F30071088400F1017308800075089B
:040400008231B32A68
:0C040400FB080319142A2400B80113009F
:10041000B6001300B4003608B402031C112AB80A4F
:100420000C2A3808180008002400B9011300B7008E
:100430001300B5003708B502031C202AB90A1B2A8D
:0604400039081800080055
:0A044600FB080319352A2400B80151
:100450001300B6001300B4003608B402031C322A9D
:10046000B80A2D2A3407180008002400B901130027
:10047000B7001300B5003708B502031C412AB90ABA
:080480003C2A350718000800B2
:08048800FB080319512A1300BF
:100490002400B40003010007B403031D4B2A8000AD
:1004A000080013002400B50003010007B503031D75
:0604B000552A800008003F
:0A04B60018000408203C0319622A14
:1004C0000318692A0408013E703C031C692A0008CD
:1004D00008008B1384032130180082318D22823171
:0204E0006B2A85
:0E04E20023009D1C762A1D121D161D1D7A2A50
:1004F0009D139D172000911E7B2A230019081800C8
:020500000800F1
:0E050200FB011F308400003085001F30860092
:0A05100002308700F0018031362828
:06051A0013002000111E79
:0E0520008F2A23009A002000111E942A080042
:02052E001300B8
:0E05300000060130031D00308403180008008F
:02053E001300A8
:08054000000584031800080007
:080548001300000484031800F5
:020550000800A1
:0A05520013000007840318000800DE
:04055C008009800A88
:02056000080091
:040562008403080006
:040566001C0008006D
:04056A00170008006E
:020000040001F9
:02000E00A4C983
:02001000FFDF10
:00000001FF
