:020000040000FA
:060000008B1381318429FD
:04000600003400348E
:06000A00703081313F213E
:100010008031F73081313F21803121001908813151
:100020003F218131B7218131BC2180311300210072
:100030009900043081313F21803123001D08813136
:100040003F218031D1208031130023009D000230F8
:1000500081313F21803123001E0881313F218031D1
:10006000D1208031130023009E00033081313F21D5
:10007000803123001F0881313F218031D120803120
:10008000130023009F002A3081313F21803113006B
:1000900023009B00683081313F2180311300230011
:1000A0009C00063081313F218031053081313F2174
:1000B0008031043081313F21803123001E0881319D
:1000C0003F21813108218031D120813108218031C7
:1000D000130023009E00043081313F218031230032
:1000E0001F0881313F218031D1208031130023004E
:1000F0009F00073081313F21803123001D0881316D
:100100003F218031D1208031130023009D00053034
:1001100081313F21803121000D0881313F21813122
:1001200008218031130021008D00053081313F21ED
:10013000803123000D0881313F2181310821803138
:10014000130023008D00013081313F2180312300D5
:100150000D0881313F2181310821803113002300B6
:100160008D00003081313F21803122001E08813115
:100170003F218031D1208031130022009E000430C5
:1001800081313F21803123001F0881313F2181319E
:1001900008218031130023009F008131A22180318A
:0201A000D02865
:0E01A20013002400B4001300003A031DDB28F4
:1001B000340801380629013A031DE12834080238C1
:1001C0000629013A023A031DE828340804380629B2
:1001D000023A033A031DEF28340808380629033A87
:1001E000043A031DF628340810380629043A053A63
:1001F000031DFD28340820380629053A063A031D58
:1002000004293408403806293408803818000800CA
:1002100013002400B4001300003A031D122934080F
:10022000FE393D29013A031D18293408FD393D29BD
:10023000013A023A031D1F293408FB393D29023ACD
:10024000033A031D26293408F7393D29033A043AB5
:10025000031D2D293408EF393D29043A053A031DC1
:1002600034293408DF393D29053A063A031D3B2974
:0E0270003408BF393D2934087F3918000800D2
:02027E00180066
:100280000408203C0319462903184D290408013E9F
:10029000703C031C4D29000808008B138403213097
:0A02A00018008131B02181314F298F
:0602AA001700F200040839
:1002B000F0000008720284000008F1007008840059
:0C02C000F0017108800072088131CB2928
:0402CC002400B60153
:1002D0001300B5001300B4003508B402031C7229E2
:0A02E000B60A6D2936081800080060
:0602EA002400B601130020
:1002F000B5001300B4003508B402031C8129B60A06
:080300007C29340718000800F5
:08030800F8011F3084000030F1
:1003100085001F30860002308700F00180310528FB
:1003200013002400B40003010007B403031D942943
:040330008000080041
:0C033400130000060130031D003084039C
:040340001800080099
:0C0344008131A9218131B0218131A22931
:02035000A829DA
:0E0352002000911EAA29230019081800080097
:0E036000130023009A002000111EB42908008B
:02036E0013007A
:080370000005840318000800D9
:080378001300000484031800C7
:02038000080073
:0A03820013000007840318000800B0
:04038C008009800A5A
:02039000080063
:0403920084030800D8
:040396001C0008003F
:04039A001700080040
:020000040001F9
:02000E00A4C983
:02001000FFFFF0
:00000001FF
