:020000040000FA
:060000008B138A117A2A1D
:04000600003400348E
:06000A000430840A8000AE
:100010000230840A8000831603131808840A8000C3
:100020008A1119218A1154218A1100088403831628
:10003000031398000330840A80000430840A80008F
:10004000831603131B08840A80008A1119218A1160
:1000500019218A1100088403831603139B000430BE
:10006000840A8000831203131808840A80008A110E
:1000700054218A110008840383120313980004306A
:10008000840A8000831203131808840A80008A11EE
:1000900019218A1100088403831203139800193070
:1000A0008316031399000030831603139A0005305A
:1000B000840A80000630840A80008316031318081F
:1000C000840A80008A1154218A1119218A1100089A
:1000D00084038316031398000730840A8000831278
:1000E00003131808840A80008A1119218A11000854
:1000F00084038312031398000D30840A80008A1150
:1001000070228A110A30840A80008A1170228A11B2
:100110004430840A80000830840A80008A11BF219C
:100120008A11D7208A111D30840A80000330840A86
:1001300080008A11BF218A11D7208A113F30840A9A
:1001400080001630840A80008A11BF218A11D720CE
:100150008A112C30840A80001630840A80008A11AB
:10016000BF218A11D7208A114130840A80001630BD
:10017000840A80008A11BF218A11D7208A11633036
:10018000840A80000B30840A80008A11BF218A1102
:10019000D7208A111730840A80000B30840A80002F
:0E01A0008A11BF218A11D7208A11D528D628AE
:0201AE00000847
:1001B000840383160313C000840A80006430840A19
:1001C00080008A112A228A1100088403303E840AA2
:1001D00080008A1170228A11831603134008840A52
:1001E00080006430840A80008A113D228A110A301E
:1001F000840A80008A112A228A1100088403303E72
:10020000840A80008A1170228A1183160313400821
:10021000840A80000A30840A80008A113D228A11F3
:1002200000088403303E840A80008A1170228A11FB
:020230000800C4
:0E0232000008840383160313BA000008840337
:10024000003A031D26293A0801385129013A031DB5
:100250002C293A0802385129013A023A031D332960
:100260003A0804385129023A033A031D3A293A0858
:1002700008385129033A043A031D41293A08103835
:100280005129043A053A031D48293A0820385129D2
:10029000053A063A031D4F293A08403851293A08D1
:0802A0008038840A8000080088
:0802A800000884038316031310
:1002B000BA0000088403003A031D61293A08FE3998
:1002C0008C29013A031D67293A08FD398C29013A26
:1002D000023A031D6E293A08FB398C29023A033A87
:1002E000031D75293A08F7398C29033A043A031D8E
:1002F0007C293A08EF398C29043A053A031D8329F1
:100300003A08DF398C29053A063A031D8A293A084A
:0E031000BF398C293A087F39840A8000080022
:02031E00831347
:10032000F8080319A1290408F100730884000008E3
:100330008403F2000408F30071088400F1017208DC
:10034000AE290408F0007308840000088403F1005B
:100350000408F30070088400F00171088313F200B0
:100360000408F0000008720284000008F100700820
:0E0370008400F0017108800072088A110B2AC7
:02037E008316E4
:100380000313B4010008840383160313B7000008A5
:10039000840383160313B800B6013408083A03191E
:1003A000E62938088039B5000310B60D0310B80DE2
:1003B00035080319DC29B60A37083602031CE4297C
:1003C000B60038080138B800B40ACD293808840AC4
:0403D00080000800A1
:0C03D4008313F8080319FC290408F10049
:1003E0007308840000088403F2000408F300710815
:1003F0008400F1017208092A0408F00073088400DF
:1004000000088403F1000408F30070088400F00180
:06041000710883130800CF
:0A0416008313F80803191C2AF200F2
:100420000408F100730884007208F30A840A80004B
:1004300071088400F101282AF1000408F000730813
:1004400084007108F30A840A800070088400F001B7
:04045000831308000A
:0C04540083160313BC0100088403BB00E6
:1004600000088403BA003B08BA02031C392ABC0AFC
:0A047000342A3C08840A80000800CA
:06047A0083160313BC0110
:1004800000088403BB0000088403BA003B08BA02DA
:10049000031C4C2ABC0A472A3A07840A8000080039
:1004A0000008840383160313BA0003010007BA038C
:0804B000031D562A800008001C
:0804B800000884030006013076
:0C04C000031D00308403840A8000080043
:0404CC008312031381
:1004D0008C1E682A831203131A08840A80000800FD
:1004E00000088403831203139900831203130C1E64
:0404F000772A08005F
:0C04F400F8011F3084009F30F300F0017D
:0605000083138A11052897
:0A0506000008840300078403840A40
:04051000800008005F
:060514008009800A0800C6
:04051A00840308004E
:02400E00C630BA
:00000001FF
