:020000040000FA
:060000008B138231702A0F
:04000600003400348E
:06000A0013002400A50014
:100010001300A70028301800823195228031240077
:100020002B30A71F172827087F39A7002D3018006D
:1000300082319522803124002708803EA7002708BE
:10004000180064301800823152228231AB22823192
:10005000952280312400270818006430180082316E
:10006000612280310A301800823152228231AB2263
:100070008231952280312400270818000A301800A8
:10008000823161228231AB228231952280312F3040
:10009000180082319522803131301800823195224A
:1000A000803132301800823195228031383018008A
:1000B0008231952280312930180082319522803199
:1000C0002A30180082319522803132301800823176
:1000D000952280315E3018008231952280312400D3
:1000E0002B30A51F78282508FF3A013EA5002D30AA
:1000F00018008231952280312400250818006430D0
:100100001800823152228231AB2282319522803115
:1001100024002508180064301800823161228031E3
:100120000A301800823152228231AB22823195226C
:1001300080312400250818000A301800823161221D
:100140008231AB22823195228031203018008231F9
:0601500095228031080039
:0A01560070301800F7301800210087
:100160001908180082319C228231A12280311300AB
:10017000210099000430180023001D081800813167
:10018000D3218031130023009D000230180023008A
:100190001E0818008131D3218031130023009E00F6
:1001A0000330180023001F0818008131D32180314B
:1001B000130023009F00443023009B0000302300E5
:1001C0009C00063018000530180004301800230089
:1001D0001E08180082310A228131D32182310A227D
:1001E0008031130023009E000430180023001F08F4
:1001F00018008131D3218031130023009F00073084
:10020000180023001D0818008131D321803113000C
:1002100023009D000530180021000D0818008231D0
:100220000A228031130021008D00053018002300C0
:100230000D08180082310A228031130023008D003E
:100240000030180022001E0818008131D3218031AF
:10025000130022009E000D3018008231952280315B
:100260000A301800823195228031F43018001330A2
:1002700018001030180003301800813144218031FB
:080280000520803142294329C9
:0802880013002400B200B101D3
:1002900013002400B300B31BB114B31313002400E4
:1002A000B40013002400B500B51B3114B513340895
:1002B000B0003208B002AD013508803EB500330809
:1002C000803EB300AC00AB01AA01A901A801A601C0
:1002D0002608103A03199D2935088039A400A9354C
:1002E000A835031C7429A90AB535AB350318B50A1E
:1002F000A40803197E29A80A0319A90AA201330830
:100300002802031C22142A08A9023308A802221872
:10031000A903A91F992933082807A2010318221449
:100320002A08A9073308A8072218A90AFE30AB0536
:100330009B290130AB04A60A68292B08AF00AE0147
:1003400035182E14AC36A00128082C020318AA294F
:10035000AF0A2014AE080319B7292F1CB42920189E
:10036000B429AF36AF0AB529AF36AF17B829B003F5
:100370002F08803EAD00AD1FC229803EB003AF35CF
:100380002F08B929AF003118C829B11CCD29CA29B5
:10039000B118CD292F088038AF002F08180024008D
:0603A000300818000800FF
:0A03A60013002400CA001300003AFF
:1003B000031DDD294A080138082A013A031DE329F3
:1003C0004A080238082A013A023A031DEA294A0873
:1003D0000438082A023A033A031DF1294A0808386A
:1003E000082A033A043A031DF8294A081038082A53
:1003F000043A053A031DFF294A082038082A053A1D
:10040000063A031D062A4A084038082A4A08803856
:0404100018000800C8
:0C04140013002400CA001300003A031D6E
:10042000142A4A08FE393F2A013A031D1A2A4A08AB
:10043000FD393F2A013A023A031D212A4A08FB39B5
:100440003F2A023A033A031D282A4A08F7393F2A6D
:10045000033A043A031D2F2A4A08EF393F2A043A87
:10046000053A031D362A4A08DF393F2A053A063A7B
:10047000031D3D2A4A08BF393F2A4A087F39180020
:02048000080072
:0E0482001700F2000408F00000087202840067
:100490000008F10070088400F00171088000720803
:0404A0008231B42AC7
:0C04A4002400CC011300CB001300CA00A0
:1004B0004B08CA02031C5E2ACC0A592A4C081800B1
:0204C000080032
:0E04C2002400CC011300CB001300CA004B082D
:1004D000CA02031C6D2ACC0A682A4A0718000800C1
:1004E000F8011F308400003085003530860002306E
:0804F0008700F0018031AB2808
:0804F80013002400CA000301F7
:0C0500000007CA03031D802A80000800C9
:04050C0013000006D2
:0C0510000130031D0030840318000800B7
:04051C002000911E0C
:0A0520008F2A2300190818000800B4
:06052A00130023009A00FB
:080530002000111E992A0800A9
:08053800130000058403180004
:020540000800B1
:0A05420013000004840318000800F1
:04054C001300000791
:06055000840318000800FE
:080556001300303E18000800FC
:02055E00800912
:04056000800A080005
:040564008403080004
:040568001C0008006B
:04056C00170008006C
:020000040001F9
:02000E00A4C983
:02001000FFFFF0
:00000001FF
