:020000040000FA
:060000008B138B31B42BC1
:08000800FB0A80310408F00836
:10001000031D700884002000111CC128111001303C
:100020008B317A23803124003E088B317A238B3147
:10003000D723803113002400BE0024004C088B31EC
:100040007A23803114308B317A23803124003E08AA
:100050008B317A238B31CA238B31E4238031130017
:10006000003A0319B32800308B317A238031130012
:100070002400BE0024004A088B317A2380312400FA
:1000800049088B317A238831C820803120308B3168
:100090007A238B31C0238031240048088B317A23A6
:1000A0008031240047088B317A238831C820803181
:1000B00020308B317A238B31C023803124004608D5
:1000C0008B317A238031240045088B317A238831A3
:1000D000C82080310D308B317A238B31C0238031A1
:1000E0000A308B317A238B31C023803124004408BD
:1000F0008B317A238031240043088B317A23883175
:10010000C820803120308B317A238B31C02380315D
:10011000240042088B317A238031240041088B313E
:100120007A238831C820803120308B317A238B317B
:10013000C0238031240040088B317A238031240091
:100140003F088B317A238831C82080310D308B31C4
:100150007A238B31C02380310A308B317A238B3163
:10016000C0238031B32801308B317A2380312000C5
:100170000C088B317A238A315F22803113002000F2
:100180008C00270016080319D628960120008D0838
:1001900001308B317A23803120000C088B317A2397
:1001A0008931EE218031130020008C00FB01090011
:0401B00000340034E3
:0C01B40000308B317A23803113002400CE
:1001C000CD0000308B317A23803113002400CC0025
:1001D00070308B317A238031F7308B317A23803144
:1001E000210019088B317A238731FA278B31D223EA
:1001F000803113002100990004308B317A23803143
:1002000023001D088B317A238931EE2180311300C0
:1002100023009D0002308B317A23803123001E0899
:100220008B317A238931EE218031130023009E0027
:1002300003308B317A23803123001F088B317A23DE
:100240008931EE218031130023009F0040308B3133
:100250007A238031130023009B0003308B317A23F3
:100260008031130023009C0006308B317A238031CB
:1002700005308B317A23803104308B317A23803101
:1002800023001E088B317A238A315F228931EE21C7
:100290008A315F228031130023009E0004308B31AD
:1002A0007A23803123001F088B317A238931EE2194
:1002B0008031130023009F0007308B317A23803177
:1002C00023001D088B317A238931EE218031130000
:1002D00023009D0005308B317A23803121000D08E9
:1002E0008B317A238A315F228031130021008D0007
:1002F00005308B317A23803123000D088B317A232E
:100300008A315F228031130023008D0001308B3150
:100310007A23803123000D088B317A238A315F22C2
:100320008031130023008D0000308B317A2380311F
:1003300022001E088B317A238931EE21803113008F
:1003400022009E0004308B317A23803123001F0865
:100350008B317A238A315F228031130023009F0082
:1003600000308B317A23803113002400CB00003021
:100370008B317A23803113002400BE0007308B318B
:100380007A238031210015088B317A238A315F224C
:10039000803113002100950007308B317A238031A2
:1003A00003308B317A23803120000B088B317A2384
:1003B0008931EE218931EE218031130020008B003C
:1003C00010308B317A2380311300270094001030D5
:1003D0008B317A238031130021008D0000308B3166
:1003E0007A238031130023008D0010308B317A2363
:1003F0008031130024008D0000308B317A2380314E
:10040000130021008C0000308B317A2380311300DF
:1004100023008C0006308B317A23803107308B31FA
:100420007A23803105308B317A23803104308B314F
:100430007A23803102308B317A23803103308B3143
:100440007A238031200018088B317A238A315F2289
:100450008A315F228931EE218931EE218A315F2292
:100460008A315F22803113002000980000308B31E8
:100470007A238031210011088B317A238931EE21D2
:10048000803113002100910006308B317A238031B6
:1004900020000B088B317A238931EE218031130043
:1004A00020008B0000308B317A2380312000180827
:1004B0008B317A238931EE2180311300200098009E
:1004C00007308B317A23803120000B088B317A235F
:1004D0008931EE218031130020008B008B31E02325
:0404E0008031712ACC
:0C04E40013002400B20013002400B30039
:1004F00013002400B40013002400B5002610AF013F
:10050000B101B51B3114B31BB114B21B8F2AB41F38
:100510008A2A9F2A34083202031C912A9F2AB41B7C
:100520008A2A3208B4063408B2063208B406330800
:10053000B5063508B3063308B5062B14A02AAB015F
:1005400035087F39B50033087F39B300A901350874
:10055000803E0318A90AAD00A8013308803E0318A5
:10056000A80AAC00AA01A401340832060319BF2A64
:10057000AA36AD36031CBD2AAA17B40AB42A2B1C0E
:10058000CA2A2C08AD062D08AC062C08AD062A0890
:10059000A400AA012400311CD12AB11CD12A26149E
:1005A000322B311CFF2A2D082C02AF000318DA2A47
:1005B0002614012BAF0803195B2BAF1BEC2AAF35B8
:1005C000AA1FE92AAF03FF302F06031DE92A2614CC
:1005D000012BAA35B403DD2AAA1FFE2AAF03FF3080
:1005E0002F06031DF52A2614012B7F302F06031D2D
:1005F000FE2AAF35B4032A1BFE2AAF0A5B2BB11CBF
:10060000322B2C082D02AF000318082B2614D32AF6
:10061000AF0803195B2BAF1B1A2BAF35A41F172B89
:10062000AF03FF302F06031D172B2614D32AA43542
:10063000B4030B2BA41F2C2BAF03FF302F06031D7D
:10064000232B2614D32A7F302F06031D2C2BAF35E6
:10065000B403241B2C2BAF0A5B2B2D082C02AF00FC
:1006600026145B2BA0012D082C07AF00031C392B8F
:10067000A00A2A0824070318412B8039031D412BA7
:10068000462BAF0AAF08031D462BA00AA00803198A
:100690005B2BA201AD3603182214AA36221C512B63
:1006A000AA17A201AC3603182214A436221C592B17
:1006B000AA17B40A322B2F08031D632B0030180031
:1006C000803018006D2B2F08803EAF002618AF1722
:0C06D0002F08180024003408180008004F
:0406DC0013002400E3
:1006E000B200B10113002400B300B31BB114B31363
:1006F00013002400B40013002400B500B51B31140E
:10070000B5133408B0003208B002AD013508803EA0
:10071000B5003308803EB300AC00AB01AA01A901CB
:10072000A801A6012608103A0319C72B35088039FD
:10073000A400A935A835031C9E2BA90AB535AB35F5
:100740000318B50AA4080319A82BA80A0319A90AB3
:10075000A20133082802031C22142A08A902330824
:10076000A8022218A903A91FC32B33082807A20136
:10077000031822142A08A9073308A8072218A90A6F
:10078000FE30AB05C52B0130AB04A60A922B2B081B
:10079000AF00AE0135182E14AC36A00128082C028B
:1007A0000318D42BAF0A2014AE080319E12B2F1C19
:1007B000DE2B2018DE2BAF36AF0ADF2BAF36AF179C
:1007C000E22BB0032F08803EAD00AD1FEC2B803E26
:1007D000B003AF352F08E32BAF003118F22BB11C5B
:1007E000F72BF42BB118F72B2F088038AF002F0808
:0A07F000180024003008180008006B
:0607FA008009800A0800DE
:1008000004088B31E823843100308B317A2387311F
:100810009E2784311B308B317A238B31CA2384315C
:100820001300003A03199B2F00308B317A23843157
:1008300080308B317A23843120308B317A2384319C
:1008400003308B317A238431FF308B317A2384312A
:1008500030308B317A238731E32784311B308B3161
:100860007A2387319E278B31D7238A31D022893151
:100870006E21823172228431FF308B317A238431B0
:1008800030308B317A238731E32784311A308B3132
:100890007A2387319E278B31D7238A31D022823128
:1008A0007222843113002400C90013002400CA00FE
:1008B00000308B317A23843180308B317A2384313C
:1008C00048308B317A23843106308B317A2384315E
:1008D000FF308B317A23843130308B317A2387316A
:1008E000E32784310E308B317A2387319E278B3179
:1008F000D7238A31D02289316E218231722284310C
:1009000020308B317A23843103308B317A23843148
:10091000FF308B317A23843130308B317A23873129
:10092000E32784310D308B317A2387319E278B3139
:10093000D7238A31D02289316E21823172228431CB
:10094000FF308B317A23843130308B317A238731F9
:10095000E32784310C308B317A2387319E278B310A
:10096000D7238A31D02282317222843113002400AD
:10097000C30013002400C40000308B317A2384317B
:1009800080308B317A23843120308B317A2384314B
:1009900003308B317A238431FF308B317A238431D9
:1009A00030308B317A238731E327843119308B3112
:1009B0007A2387319E278B31D7238A31D022893100
:1009C0006E21823172228431FF308B317A2384315F
:1009D00030308B317A238731E327843118308B31E3
:1009E0007A2387319E278B31D7238A31D0228231D7
:1009F0007222843113002400BC0013002400BD00C7
:100A000024003D088B317A238431240048088B313F
:100A10007A238B31CA2384311300003A0319112D34
:100A2000182D00308B317A23843113002400CD003F
:100A300024003C088B317A23843113002400C70042
:100A400024003D088B317A23843113002400C80030
:100A500000308B317A23843180308B317A2384319A
:100A600020308B317A23843103308B317A238431E7
:100A7000FF308B317A23843130308B317A238731C8
:100A8000E32784310B308B317A2387319E278B31DA
:100A9000D7238A31D02289316E218231722284316A
:100AA000FF308B317A23843130308B317A23873198
:100AB000E32784310A308B317A2387319E278B31AB
:100AC000D7238A31D022823172228431130024004C
:100AD000BC0013002400BD0024003C088B317A23A5
:100AE000843113002400C10024003D088B317A2397
:100AF000843113002400C20000308B317A2384310A
:100B000080308B317A23843100308B317A238431E9
:100B100080308B317A23843100308B317A238431D9
:100B200080308B317A2384311C308B317A238431AD
:100B30000D308B317A238431FF308B317A2384312D
:100B400030308B317A238731E327843116308B3173
:100B50007A2387319E278B31D7238A31D02289315E
:100B60006E218231722284317A308B317A23843142
:100B700009308B317A238431FF308B317A238431F1
:100B800030308B317A238731E327843115308B3134
:100B90007A2387319E278B31D7238A31D02289311E
:100BA0006E2182317222843148308B317A23843134
:100BB00006308B317A238431FF308B317A238431B4
:100BC00030308B317A238731E327843114308B31F5
:100BD0007A2387319E278B31D7238A31D0228931DE
:100BE0006E2182317222843120308B317A2384311C
:100BF00003308B317A238431FF308B317A23843177
:100C000030308B317A238731E327843113308B31B5
:100C10007A2387319E278B31D7238A31D02289319D
:100C20006E21823172228431FF308B317A238431FC
:100C300030308B317A238731E327843112308B3186
:100C40007A2387319E278B31D7238A31D022823174
:100C50007222843143308B317A23843110308B31CE
:100C60007A2383316E23843113002400BC001300E7
:100C70002400BD0024004D088B317A2384311300F9
:100C8000003A0319742E00308B317A238431FF30FF
:100C90008B317A23843124003D088B317A238431CF
:100CA00024003C088B317A2389316E218431003055
:100CB0008B317A238431FF308B317A2384312400C5
:100CC00046088B317A238431240045088B317A23FE
:100CD00089316E2182317222843113002400C500D3
:100CE00013002400C600842E24003C088B317A2394
:100CF000843113002400C50024003D088B317A2381
:100D0000843113002400C60000308B317A238431F3
:100D100080308B317A23843100308B317A238431D7
:100D200080308B317A23843100308B317A238431C7
:100D300080308B317A2384311C308B317A2384319B
:100D40000D308B317A238431FF308B317A2384311B
:100D500030308B317A238731E327843108308B316F
:100D60007A2387319E278B31D7238A31D02289314C
:100D70006E218231722284317A308B317A23843130
:100D800009308B317A238431FF308B317A238431DF
:100D900030308B317A238731E327843107308B3130
:100DA0007A2387319E278B31D7238A31D02289310C
:100DB0006E2182317222843148308B317A23843122
:100DC00006308B317A238431FF308B317A238431A2
:100DD00030308B317A238731E327843106308B31F1
:100DE0007A2387319E278B31D7238A31D0228931CC
:100DF0006E2182317222843120308B317A2384310A
:100E000003308B317A238431FF308B317A23843164
:100E100030308B317A238731E327843105308B31B1
:100E20007A2387319E278B31D7238A31D02289318B
:100E30006E21823172228431FF308B317A238431EA
:100E400030308B317A238731E327843104308B3182
:100E50007A2387319E278B31D7238A31D022823162
:100E60007222843143308B317A23843110308B31BC
:100E70007A2383316E23843113002400BC001300D5
:100E80002400BD0024004D088B317A2384311300E7
:100E9000003A03197C2F00308B317A238431FF30E4
:100EA0008B317A23843124003D088B317A238431BD
:100EB00024003C088B317A2389316E218431003043
:100EC0008B317A238431FF308B317A2384312400B3
:100ED00040088B317A23843124003F088B317A23F8
:100EE00089316E2182317222843113002400BF00C7
:100EF00013002400C0009A2F24003C088B317A2371
:100F0000843113002400BF0024003D088B317A2374
:100F1000843113002400C00001308B317A238431E6
:100F200013002400CD0001308B317A23843113006B
:0C0F30002400CC009B2F860308009D2F9E
:040F3C001700FB0897
:100F4000031DB22FF4000408F000000874028400AE
:100F50000008F20070088400F00172088000740834
:100F60008B31E82BF5000408F100000875028400BD
:100F70000008F30071088400F1017308800075080F
:040F80008B31E82B9E
:0C0F8400FB080319D42F2400BA0113004D
:100F9000B8001300B6003808B602031CD12FBA0AF5
:100FA000CC2F3A08180008002400BB011300B90038
:100FB0001300B7003908B702031CE02FBB0ADB2F70
:060FC0003B0818000800C8
:0A0FC600FB080319F02F13002400AC
:100FD000B60003010007B603031DEA2F80000800D6
:100FE00013002400B70003010007B703031DF42F0B
:040FF0008000080075
:0A0FF4001300000584031800080034
:1010000004088B31E823883101308B317A23873112
:101010009E2788312C308B317A238B31CA2388313B
:101020001300003A0319932824004B088B317A23CC
:10103000883102308B317A238B3159238831130068
:10104000003A03195228FF308B317A23883124006B
:101050004B088B317A238B31D7238831130024003E
:10106000CB0000308B317A2387319E2788311300E3
:101070002400BD008B31E6238B31A423883101305D
:101080008B317A23883124003D088B317A238B31D0
:10109000D723883188310020883101308B317A2381
:1010A0008831922824004B088B317A238831013013
:1010B0008B317A238B31CA2388311300003A03190C
:1010C0006C2800308B317A23883113002400CB0048
:1010D000843100248831922802308B317A23873181
:1010E0009E2788314C308B317A238B31CA2388314B
:1010F00003308B317A2387319E2788314C308B31F6
:101100007A238B31CA238B31E42388311300003AD0
:101110000319922804308B317A238831130024007C
:10112000CB009228C62800308B317A2387319E2746
:1011300088311C308B317A238B315923883113004D
:10114000003A0319AB2800308B317A238831130021
:101150002400CD00C62800308B317A2387319E27AA
:10116000883113002400BD008B31E6238B31A4238A
:10117000883101308B317A23883124003D088B314E
:101180007A238B31D7238831860300288603080011
:1011900013002400A5001300A700283018008B318D
:1011A000C023883124002B30A71FDA2827087F3975
:1011B000A7002D3018008B31C02388312400270868
:1011C000803EA70027081800643018008731C22726
:1011D0008B31DC238B31C023883124002708180091
:1011E000643018008B31382388310A301800873179
:1011F000C2278B31DC238B31C023883124002708A0
:1012000018000A3018008B3138238B31DC238B31E6
:10121000C02388312F3018008B31C0238831313002
:1012200018008B31C0238831323018008B31C02335
:101230008831383018008B31C023883129301800AC
:101240008B31C02388312A3018008B31C02388317C
:10125000323018008B31C02388315E3018008B315A
:10126000C023883124002B30A51F3B292508FF3AD5
:10127000013EA5002D3018008B31C0238831240099
:1012800025081800643018008731C2278B31DC2311
:101290008B31C023883124002508180064301800E1
:1012A0008B31382388310A3018008731C2278B31BF
:1012B000DC238B31C02388312400250818000A3034
:1012C00018008B3138238B31DC238B31C0238831DC
:0C12D000203018008B31C023883108004A
:0412DC0013002400D7
:1012E000AE00803A031D78297F3000050319C82914
:1012F000AD0113002400AF00AF1BAD14AF131300FA
:101300002400B000803A031D89297F3000050319AD
:10131000CA2913002400B100B11B2D14B1133008E9
:10132000AC002E08AC073108803E180024002F08BE
:10133000803E1800CF2913002400AB00AB1FA72963
:1013400013002400AC0A8039031DAB0AB529031031
:1013500013002400A0008039031D03142400AB0DEA
:10136000200824004039031DAB0A2B08803EAB0047
:101370002D18BD29AD1CC229BF29AD18C2292B08C3
:101380008038AB002B08180024002C081800CE2948
:101390001300130013008030180018000800130019
:1013A0002400A90013002400A800A401A601A201A2
:1013B000291CDE292808A6070318A40AA936A43682
:1013C000A60C0318A917A20A08302206031DD82963
:0C13D000290818002400260818009B299A
:0413DC00FB080319EE
:1013E000282A13002400B6001300003A031DFB292D
:1013F00036080138262A013A031D012A3608023828
:10140000262A013A023A031D082A36080438262AF9
:10141000023A033A031D0F2A36080838262A033AEF
:10142000043A031D162A36081038262A043A053ACB
:10143000031D1D2A36082038262A053A063A031DC0
:10144000242A36084038262A360880381800080032
:1014500013002400B7001300003A031D322A370896
:1014600001385D2A013A031D382A370802385D2AFF
:10147000013A023A031D3F2A370804385D2A023A2E
:10148000033A031D462A370808385D2A033A043A0E
:10149000031D4D2A370810385D2A043A053A031D0A
:1014A000542A370820385D2A053A063A031D5B2A7C
:0E14B000370840385D2A3708803818000800D9
:0214BE00FB0829
:1014C0000319992A13002400B6001300003A031DE3
:1014D0006C2A3608FE39972A013A031D722A36080B
:1014E000FD39972A013A023A031D792A3608FB3959
:1014F000972A023A033A031D802A3608F739972AB9
:10150000033A043A031D872A3608EF39972A043A2A
:10151000053A031D8E2A3608DF39972A053A063A1E
:10152000031D952A3608BF39972A36087F391800D7
:10153000080013002400B7001300003A031DA32A7B
:101540003708FE39CE2A013A031DA92A3708FD398A
:10155000CE2A013A023A031DB02A3708FB39CE2AB7
:10156000023A033A031DB72A3708F739CE2A033A5D
:10157000043A031DBE2A3708EF39CE2A043A053A49
:10158000031DC52A3708DF39CE2A053A063A031D5E
:10159000CC2A3708BF39CE2A37087F39180008000F
:1015A00013002400A000A01FDB2AA01320081800AD
:1015B00007301800372B201FE62A240020130310C1
:1015C000A00D2008180006301800372BA01EF22AA4
:1015D0002400A0120310A00DA00D20081800053053
:1015E0001800372B201EFF2A240020120310A00D04
:1015F000A00DA00D2008180004301800372BA01DE6
:101600000D2B2400A0110310A00DA00DA00DA00D06
:101610002008180003301800372B201D1C2B240035
:1016200020110310A00DA00DA00DA00DA00D2008ED
:10163000180002301800372BA01C2C2B2400A010FF
:101640000310A00DA00DA00DA00DA00DA00D200851
:10165000180001301800372B201C332B00301800E5
:1016600000301800372B00301800803018000800B8
:10167000FB0803194A2B2400BA011300B800130019
:10168000B6003808B602031C472BBA0A422B3607AD
:10169000180008002400BB011300B9001300B700B4
:1016A0003908B702031C562BBB0A512B3707180009
:0216B000080030
:0E16B200FB0803196B2B13002400B600130075
:1016C00036020319652B0318682B01301800080037
:1016D00000301800080013002400B7001300370280
:1016E0000319742B0318772B013018000800003001
:0416F00018000800D6
:0C16F40018000408A03C0319812B031807
:10170000882B0408013EF03C031C882B00080800CD
:101710008B138403213018008B31C0238B318A2B2B
:1017200004088B31E8238B3100308B317A238B31E5
:10173000A4238B3101308B317A23883100208B3107
:08174000EA238B31840008004C
:0817480023009D1CA92B1D12BA
:101750001D161D1DAD2B9D139D172000911EAE2B38
:0817600023001908180008001D
:08176800FB019F3084000030FA
:1017700085001F30860000308700F0018031DA28B4
:1017800013002000111EC22B23009A002000111EFE
:04179000C72B08005B
:0C179400130000060130031D0030840328
:0417A0001800080025
:0A17A400130000048403180008007D
:0217AE00130026
:0817B000000784031800080083
:0817B8001300303E1800080088
:0817C0008B3190238B31E02BEB
:0417C8008731E32F53
:0417CC00840308008A
:0417D0001C000800F1
:0417D40017000800F2
:020000040001F9
:02000E00A4C983
:02001000FFDF10
:00000001FF
