:020000040000FA
:060000008B138A15EF2F9F
:08000800F700030EF8000408E4
:10001000F9000A08FE007608FA00FB0A8A11831329
:100020000408F008031D70088400831203130C1CDD
:1000300064280C10013083120317BF000F30840AAC
:100040008000831203174108840A80003C30840A30
:1000500080000F30840A80008A15B7258A1153303A
:10006000840A80008A15CD278A116530840A8000B1
:100070008A15CD278A117430840A80008A15CD270D
:100080008A110F30840A8000831203174008840A03
:1000900080003C30840A80001030840A80008A1579
:1000A000B7258A115030840A80008A15CD278A111D
:1000B0006F30840A80008A15CD278A117330840A34
:1000C00080008A15CD278A11FB017A08F6007E0888
:1000D0008A0079088400780E8300F70E770E0900F5
:0400E00000340034B4
:0C00E40004088A1535278A1183120313C3
:1000F0000F08840A80008A11FF268A11FF30840AC3
:1001000080008A15FF258A11FE30840A80008A1536
:10011000FF258A118030840A80000030840A800024
:100120000930840A80008A15FF258A110830840A64
:1001300080008A15FF258A11AD248A1500208A11B6
:10014000831203173F08003A0319AE280130840ACE
:100150008000003083120317BF00B1280030840AEA
:100160008000FB30840A80008A15FF258A11000870
:100170008403003A0319C3280830840A800004303D
:10018000840A8000CF28FD30840A80008A15FF256C
:100190008A11FC30840A80008A15FF258A11FB3001
:1001A000840A80008A15FF258A1100088403003A1A
:1001B0000319E9280030840A80000030840A800096
:1001C0000430840A80008A1516218A1500208A11BD
:1001D000F5280130840A80008A15FF258A11003035
:1001E000840A80008A15FF258A110730840A80005E
:1001F0008A15FF258A110630840A80008A15FF259A
:100200008A118030840A80000030840A8000F8302F
:10021000840A80008A15FF258A11F730840A80003D
:100220008A15FF258A11AD248A1500208A11033012
:10023000840A80008A15FF258A110230840A800012
:100240008A15FF258A118030840A80000030840AD4
:100250008000F830840A80008A15FF258A11F73063
:10026000840A80008A15FF258A11AD248A15002092
:100270008A110530840A80008A15FF258A1104300E
:10028000840A80008A15FF258A11F430840A8000D0
:100290008A15FF258A11F330840A80008A15FF250C
:1002A0008A11FA30840A80008A15FF258A11F930F4
:1002B000840A80008A15FF258A11AD248A15002042
:1002C0008A11F3258A11F630840A80008A15FF25E9
:1002D0008A11F530840A80008A15FF258A15A9271E
:1002E0008A1100088403003A03197D290030840A2A
:1002F00080008030840A80009729F630840A8000CC
:100300008A15FF258A11F530840A80008A15FF2599
:100310008A11FA30840A80008A15FF258A11F93083
:10032000840A80008A15FF258A1151258A11F2302E
:10033000840A80008A15FF258A11F130840A800022
:100340008A15FF258A11F430840A80008A15FF255A
:100350008A11F330840A80008A15FF258A1100244F
:100360008A11FB30840A80008A15FF258A11000853
:100370008403003A0319C3296030840A80000330E3
:10038000840A8000CF29FF30840A80008A15FF2567
:100390008A11FE30840A80008A15FF258A11F83000
:1003A000840A80008A15FF258A11F730840A8000AC
:1003B0008A15FF258A11F230840A80008A15FF25EC
:1003C0008A11F130840A80008A15FF258A110330D2
:1003D000840A80008A15FF258A110230840A800071
:1003E0008A15FF258A1514278A11FB080319FA2993
:1003F000FD00FB29FC00000884038A1535278A11BB
:10040000000884038A1535278A11000884038A1599
:1004100035278A11000884038A1535278A110008B8
:1004200084038A1535278A11000884038A15352725
:100430008A11000884038A1535278A11000884036D
:100440008A1535278A11FB080319282A7D08292ACD
:100450007C0884008403840384038403840384036A
:1004600084038403840384038A1514278A11840A6D
:1004700080008A1514278A11840A80008A1514279F
:100480008A11840A80008A1514278A11840A800040
:100490008A1514278A11840A80008A1514278A1164
:1004A000840A80008A1514278A11840A80008A151C
:0A04B00014278A11840A8000080056
:0604BA0004088A15352735
:1004C0008A110030840A80008A15FF258A110008ED
:1004D0008403003A0319822A0030840A8000013024
:1004E000840A8000831603171D08840A80008A1579
:1004F00000248A1180238A110008840383160317BD
:100500009D00972A0130840A80000030840A800010
:10051000831603171D08840A80008A1500248A1197
:1005200080238A1100088403831603179D0002307C
:10053000840A80008A15FF258A110130840A800010
:100540008A15FF258A15A9278A1100088403003A15
:100550000319AE2A0030840A8000E32A0230840A9C
:1005600080008A15FF258A110130840A80008A15CF
:10057000FF258A117A30840A80000930840A8000BD
:100580008A1579248A1100088403003A0319CC2AB9
:10059000FF30840A8000E32A0230840A80008A1532
:1005A000FF258A110130840A80008A15FF258A11EF
:1005B0000030840A80000230840A80008A115125AC
:1005C0008A1584268A110008840383120313950078
:1005D0000230840A80008A15FF258A110130840ABE
:1005E00080008A15FF258A118030840A800000303F
:1005F000840A80000030840A80000230840A80006F
:10060000831203131508840A80008A11FF268A11B9
:10061000AD248A11AD248A1500208A156F278A110E
:100620002030840A80000130840A80008A157924F1
:100630008A1100088403003A0319342B0530840A18
:1006400080000430840A8000831203131708840A90
:1006500080008A1180238A1180238A110008840374
:10066000831203139700782B8A156F278A11403065
:10067000840A80000030840A80008A1579248A1157
:1006800000088403003A0319562B0530840A8000C1
:10069000831203131708840A80008A1180238A11A9
:1006A00000088403831203139700782B8A156F27A1
:1006B0008A110030840A8000FF30840A80008A1585
:1006C00079248A1100088403003A0319782B043036
:1006D000840A8000831203131708840A80008A1199
:1006E00080238A1100088403831203139700782B58
:1006F0008A1514278A118400840384038403080064
:10070000FB080319BE2B0008840383120317B600ED
:1007100000088403003A031D902B36080138BB2BD8
:10072000013A031D962B36080238BB2B013A023AD8
:10073000031D9D2B36080438BB2B023A033A031DD8
:10074000A42B36080838BB2B033A043A031DAB2B05
:1007500036081038BB2B043A053A031DB22B360875
:100760002038BB2B053A063A031DB92B3608403812
:10077000BB2B36088038840A8000080000088403F8
:1007800083120317B70000088403003A031DCB2B24
:1007900037080138F62B013A031DD12B37080238F0
:1007A000F62B013A023A031DD82B37080438F62BF2
:1007B000023A033A031DDF2B37080838F62B033AB9
:1007C000043A031DE62B37081038F62B043A053A95
:1007D000031DED2B37082038F62B053A063A031D8A
:1007E000F42B37084038F62B37088038840A80000D
:0207F0000800FF
:0E07F2000008840300058403840A80000800C8
:1008000004088A1535278A117030840A8000053063
:10081000840A80000130840A80008A15FF258A112D
:100820000030840A80008A15FF258A11AD248A11C0
:100830000030840A8000FD30840A80000330840A7E
:1008400080008A15FF258A110230840A80008A15EB
:10085000FF258A11AD248A117A30840A80000B307A
:10086000840A80000530840A80008A15FF258A11D9
:100870000430840A80008A15FF258A11AD248A1568
:1008800000208A1500208A156F278A156F278A1184
:100890000030840A80008030840A80008A15792420
:1008A0008A1100088403003A0319782C0030840A66
:1008B00080000A30840A80008A1579248A11000891
:1008C0008403003A0319712C0030840A80000A3036
:1008D000840A80000130840A80008A115D228A1116
:1008E000772C0130840A80008A115D228A11A22CA3
:1008F0008030840A80000A30840A80008A157924B6
:100900008A1100088403003A0319962C8030840A67
:1009100080000030840A80008A11AD248A110030E2
:10092000840A80008A115D228A11A22C0030840A78
:1009300080000A30840A80000030840A80008A1116
:100940005D228A118A1514278A1184008403840386
:0A0950008403840384038403080079
:06095A0000088403831273
:100960000317AE00803A031DB92C7F300005031930
:100970001D2DAD010008840383120317AF00AF1BC8
:10098000AD14AF130008840383120317B000803A3C
:10099000031DCE2C7F3000050319212D0008840390
:1009A00083120317B100B11B2D14B1133008AC0032
:1009B0002E08AC073108803E840A8000831203179A
:1009C0002F08803E840A8000292D000884038312AA
:1009D0000317AB00AB1FF52C000884038312031729
:1009E000AC0A8039031DAB0A072D031000088403ED
:1009F00083120317A0008039031D03148312031709
:100A0000AB0D2008831203174039031DAB0A2B08D6
:100A1000803EAB002D180F2DAD1C142D112DAD18DF
:100A2000142D2B088038AB002B08840A8000831219
:100A300003172C08840A8000282D0008840300086E
:100A40008403000884038030840A8000840A8000C4
:100A500008000008840383120317A9000008840318
:100A600083120317A800A401A601A201291C3C2D92
:100A70002808A6070318A40A0310A90C0310A40C45
:100A8000A60C0318A917A20A08302206031D362D4A
:100A90002908840A8000831203172608840A80002C
:020AA000E52C43
:0E0AA2000008840383120317B200B10100089C
:100AB000840383120317B300B31BB114B3130008EC
:100AC000840383120317B4000008840383120317FE
:100AD000B500B51B3114B5133408B0003208B002AC
:100AE000AD013508803EB5003308803EB300AC0050
:100AF000AB01AA01A901A801A6012608103A031911
:100B0000B62D35088039A4000310A90D0310A80DD7
:100B1000031C8B2DA90A0310B50D0310AB0D031890
:100B2000B50AA4080319972DA80A0319A90AA20156
:100B300033082802031C22142A08A9023308A80239
:100B40002218A903A91FB22D33082807A2010318F0
:100B500022142A08A9073308A8072218A90AFE3078
:100B6000AB05B42D0130AB04A60A7D2D2B08AF00D8
:100B7000AE0135182E140310AC0CA00128082C026D
:100B80000318C42DAF0A2014AE080319D32D2F1C4F
:100B9000CF2D2018CF2D0310AF0CAF0AD12D03108D
:100BA000AF0CAF17D42DB0032F08803EAD00AD1FA2
:100BB000DF2D803EB0030310AF0D2F08D52DAF0001
:100BC0003118E52DB11CEA2DE72DB118EA2D2F08BB
:100BD0008038AF002F08840A800083120317300882
:060BE000840A80000800F9
:0A0BE60004088A1535278A11013032
:100BF000840A80008A15FF258A110030840A80004B
:100C00008A15FF258A110030840A80008030840A0A
:100C100080008A1579248A1100088403003A031998
:100C2000332E0130840A80008A15FF258A11003096
:100C3000840A80008A15FF258A117A30840A800090
:100C40000B30840A80008A1579248A1100088403F5
:100C5000003A0319322E7A30840A80000B30840A5D
:100C60008000322E532EFA30840A80000B30840A22
:100C700080000130840A80008A15FF258A11003027
:100C8000840A80008A15FF258A1579248A110008B4
:100C90008403003A0319532EFA30840A80000B3083
:100CA000840A8000532E8A1514278A11FB08031921
:100CB0005B2EFD005C2EFC00000884038A1535279E
:100CC0008A11000884038A1535278A11FB08031945
:100CD0006B2E7D086C2E7C088400840384038A15A7
:100CE00014278A11840A80008A1514278A11840A1D
:040CF0008000080078
:0C0CF4001B30840A80008A15CD278A116D
:100D00005B30840A80008A15CD278A113230840A2C
:100D100080008A15CD278A114B30840A80008A15FD
:100D2000CD278A111B30840A80008A15CD278A11AD
:100D30005B30840A80008A15CD278A114A30840AE4
:100D400080008A15CD278A111B30840A80008A15FD
:100D5000CD278A115B30840A80008A15CD278A113D
:100D60003130840A80008A15CD278A114A30840ADE
:100D700080008A15CD278A111B30840A80008A15CD
:100D8000CD278A115B30840A80008A15CD278A110D
:100D90003230840A80008A15CD278A114B30840AAC
:100DA00080008A15CD278A111B30840A80008A159D
:100DB000CD278A115B30840A80008A15CD278A11DD
:100DC0004A30840A80008A15CD278A111B30840A94
:100DD00080008A15CD278A115B30840A80008A152D
:100DE000CD278A113130840A80008A15CD278A11D7
:0E0DF0004A30840A80008A15CD278A11080037
:020DFE000008EB
:100E0000840383120317A000A01F0E2FA013200835
:100E1000840A80000730840A8000802F201F1C2F46
:100E20008312031720130310A00D2008840A8000EA
:100E30000630840A8000802FA01E2B2F83120317F8
:100E4000A0120310A00DA00D2008840A8000053018
:100E5000840A8000802F201E3B2F8312031720124C
:100E60000310A00DA00DA00D2008840A80000430FE
:100E7000840A8000802FA01D4C2F83120317A0111D
:100E80000310A00DA00DA00DA00D2008840A800065
:100E90000330840A8000802F201D5E2F83120317E9
:100EA00020110310A00DA00DA00DA00DA00D200875
:100EB000840A80000230840A8000802FA01C712FD9
:100EC00083120317A0100310A00DA00DA00DA00DFC
:100ED000A00DA00D2008840A80000130840A800043
:100EE000802F201C7A2F0030840A80000030840A72
:100EF0008000802F0030840A80008030840A8000C7
:020F00000800E7
:0E0F0200FF308316031392000230840A800031
:100F10000330840A80000030840A80008A11802314
:100F20008A1180238A110008840383120313970017
:100F300000308312031395000130840A800083126D
:100F400003130C08840A80008A1500248A11000803
:100F50008403831203138C000030840A8000013064
:100F6000840A8000831203131208840A80008A1501
:100F700000248A1500248A110008840383120313B5
:100F800092000230840A8000831203131208840A3C
:100F900080008A1180238A110008840383120313BE
:100FA00092000130840A8000831203130C08840A23
:100FB00080008A1500248A11000884038312031319
:100FC0008C008A1596278A110530840A8000043027
:100FD000840A8000831603130708840A80008A1598
:100FE00000248A1500248A11000884038316031341
:0C0FF00087000030831203138700080004
:040FFC008403080062
:101000000008840383120317B200000884038312CC
:101010000317B3000008840383120317B400000809
:10102000840383120317B5002610AF01B101B51B6D
:101030003114B31BB114B21B2528B41F2028352846
:1010400034083202031C27283528B41B2028320814
:10105000B4063408B2063208B4063308B5063508BB
:10106000B3063308B5062B143628AB0135087F3993
:10107000B50033087F39B300A9013508803E031855
:10108000A90AAD00A8013308803E0318A80AAC00E5
:10109000AA01A40134083206031957280310AA0C28
:1010A0000310AD0C031C5528AA17B40A4A282B1CA0
:1010B00062282C08AD062D08AC062C08AD062A08BF
:1010C000A400AA0183120317311C6A28B11C6A28E4
:1010D0002614D128311C9B282D082C02AF000318A0
:1010E000732826149D28AF080319FE28AF1B8728F4
:1010F0000310AF0DAA1F8328AF03FF302F06031D77
:10110000832826149D280310AA0DB4037628AA1F4D
:101110009A28AF03FF302F06031D902826149D2820
:101120007F302F06031D9A280310AF0DB4032A1B2E
:101130009A28AF0AFE28B11CD1282C082D02AF0036
:101140000318A42826146C28AF080319FE28AF1B27
:10115000B8280310AF0DA41FB428AF03FF302F062B
:10116000031DB42826146C280310A40DB403A7286B
:10117000A41FCB28AF03FF302F06031DC128261460
:101180006C287F302F06031DCB280310AF0DB4034E
:10119000241BCB28AF0AFE282D082C02AF002614F2
:1011A000FE28A0012D082C07AF00031CD828A00A98
:1011B0002A0824070318E0288039031DE028E528C1
:1011C000AF0AAF08031DE528A00AA0080319FE28EE
:1011D000A2010310AD0C031822140310AA0C221C48
:1011E000F228AA17A2010310AC0C03182214031052
:1011F000A40C221CFC28AA17B40AD1282F08031D0E
:1012000008290030840A80008030840A8000152973
:101210002F08803EAF002618AF172F08840A8000E1
:0C122000831203173408840A80000800C1
:04122C0004088A1513
:1012300035278A150630840A80000530840A80002C
:101240000430840A8000831603131F08840A800078
:101250008A1180238A1500248A1180238A150008A8
:101260008403831603139F000030840A80008A15CC
:10127000FF258A150030840A80008A15DB278A152D
:1012800000088403003A03195B290230840A8000B5
:101290000330840A80000430840A80008312031320
:1012A0001F08840A80008A1500248A1500248A15E4
:1012B00000248A1570290230840A80000330840AD1
:1012C00080000430840A8000831203131F08840AFC
:1012D00080008A1180238A1500248A1500248A152B
:1012E00000088403831203139F008A11FE278A15C6
:1012F0000130840A80000730840A80000030840AAC
:101300008000831203131F08840A80008A1180233F
:101310008A1180238A1500248A1500088403831209
:1013200003139F000030840A8000831203171E08F5
:10133000840A80008A1180238A150008840383129E
:1013400003179E000130840A8000831203131F08D4
:10135000840A80008A1180238A150008840383127E
:1013600003139F008A1583278A150030840A8000A2
:101370000830840A80000330840A8000831203133B
:101380001E08840A80008A11F9238A11FF268A1117
:10139000AD248A15831603131E08840A80008A115F
:1013A000FF268A1500208A1514278A15FB080319C1
:1013B000DB29FD00DC29FC00000884038A153527A1
:1013C0008A15000884038A1535278A15FB08031936
:1013D000EB297D08EC297C08840084038A151427F6
:1013E0008A15840A80008A1514278A15840A8000C9
:0213F0000800F3
:0E13F200003083120317C1000030831203176E
:10140000C0000030831203138B00003083120317D7
:101410009F000030831203179E008A1181278A15CE
:101420000430840A80000230840A8000831603138B
:101430001808840A80008A1180238A1500248A15DE
:10144000000884038316031398000330840A800085
:101450000430840A8000831603131B08840A80006A
:101460008A1180238A1180238A1500088403831639
:1014700003139B000430840A8000831203131808AE
:10148000840A80008A1500248A15000884038312C8
:10149000031398000430840A800083120313180891
:1014A000840A80008A1180238A150008840383122D
:1014B0000313980019308316031399000030831624
:1014C00003139A000530840A80000630840A8000E5
:1014D000831603131808840A80008A1500248A11D1
:1014E00080238A15000884038316031398000730AD
:1014F000840A8000831203131808840A80008A116A
:1015000080238A1500088403831203139800013096
:10151000003A03198F2A8A117A268A158F2A0130F8
:10152000840A80000630840A80000530840A800026
:101530000430840A80000230840A80000330840A68
:101540008000831203131008840A80008A15002487
:101550008A1500248A1180238A1180238A15002489
:101560008A1500248A15000884038312031390004F
:101570000030840A8000831603130C08840A80005C
:101580008A1180238A1500088403831603138C00B4
:101590000630840A8000831203130B08840A80003B
:1015A0008A1180238A1500088403831203138B0099
:0215B000080031
:0E15B20004088A1535278A150130840A800046
:1015C0008A15FF258A150030840A80008A15FF25B8
:1015D0008A150F30840A80000930840A80008A1539
:1015E00079248A155A30840A80000830840A8000E1
:1015F0000330840A80008A15FF258A150230840A88
:1016000080008A15FF258A1579248A15FE238A15FC
:1016100000088403003A0319222B0030840A80005A
:101620000030840A80000330840A80008A15FF2578
:101630008A150230840A80008A15FF258A15002049
:101640008A15732B5C30840A80000630840A80007F
:101650000130840A80008A15FF258A150030840A2B
:1016600080008A15FF258A1579248A150330840A9B
:1016700080008A15FF258A150230840A80008A15A9
:10168000FF258A157A30840A80000730840A80009A
:101690008A1579248A15FE238A1500088403003AE6
:1016A0000319672B8030840A80000030840A800090
:1016B0000330840A80008A15FF258A150230840AC7
:1016C00080008A15FF258A1500208A15732B0330A8
:1016D000840A80008A15FF258A150230840A80005A
:1016E0008A15FF258A158A1514278A15FB08031900
:1016F0007B2BFD007C2BFC00000884038A1535271A
:101700008A15000884038A1535278A15FB080319F2
:101710008B2B7D088C2B7C0884008403840384033A
:1017200084038A1514278A15840A80008A151427D1
:081730008A15840A80000800FC
:0817380004088A1535278A1503
:101740000130840A80008A15FF258A150030840A3A
:1017500080008A15FF258A157030840A80000330C6
:10176000840A80008A1579248A1500088403003AC7
:101770000319BE2B0F30840A8000DE2B0030840A50
:1017800080008030840A80000130840A80008A153D
:10179000FF258A150030840A80008A15FF258A15E6
:1017A00079248A1500088403003A0319DB2B0030E2
:1017B000840A8000DE2B8A1584268A158A15142750
:1017C0008A15FB080319E62BFD00E72BFC00000837
:1017D00084038A1535278A15FB080319F12B7D0828
:1017E000F22B7C088400840384038A1514278A154D
:0617F000840A80000800DD
:0617F6008009800A0800D2
:0417FC008A15542FC7
:10180000FB0803193E2C0008840383120317B6005B
:1018100000088403003A031D102C3608FE393B2CC7
:10182000013A031D162C3608FD393B2C013A023AC9
:10183000031D1D2C3608FB393B2C023A033A031DCD
:10184000242C3608F7393B2C033A043A031D2B2C81
:101850003608EF393B2C043A053A031D322C360882
:10186000DF393B2C053A063A031D392C3608BF39BF
:101870003B2C36087F39840A800008000008840366
:1018800083120317B70000088403003A031D4B2C92
:101890003708FE39762C013A031D512C3708FD39E3
:1018A000762C013A023A031D582C3708FB39762C66
:1018B000023A033A031D5F2C3708F739762C033AB6
:1018C000043A031D662C3708EF39762C043A053AA2
:1018D000031D6D2C3708DF39762C053A063A031DB7
:1018E000742C3708BF39762C37087F39840A80007A
:0218F0000800EE
:0E18F2000008840383120317A000000884037B
:10190000A20000088403A40000088403A600A90123
:10191000A801A61B2914A21B2814291C952C2818E1
:10192000952C0030840A8000E62C29189D2C281C58
:101930009D2C0130840A8000E62CA613A213A01B64
:10194000AA2CA0080319AA2CA4080319B52CA41BBF
:10195000B52CB02CA41BB52CA4080319B52CDF2C76
:10196000240820020318B52CDF2CA41BC02CA408CB
:101970000319C02CA0080319CB2CA01BCB2CC62C00
:10198000A01BCB2CA0080319CB2CD72C2008240299
:101990000318CB2CD72C26082202031CDF2C22088C
:1019A0002602031CD72C0030840A8000E62C831208
:1019B0000317003029180130840A8000E62C8312B6
:0E19C00003170030291C0130840A8000080043
:0219CE008A1578
:1019D000F9218A150030840A80008312031310084D
:1019E000840A80008A1500248A1500088403831263
:1019F000031390008A15BB278A1500308312031346
:101A00008F000030831203138E00003083120317FF
:101A1000BF000730840A8000831203130B08840A76
:101A200080008A1180238A1500088403831203131F
:101A30008B000830831203138F000030840A80006B
:101A4000831203131008840A80008A1180238A15E8
:101A5000000884038312031390000030840A80007E
:101A60008030840A80000030840A80000030840ABC
:101A700080000430840A80008A1516218A1500200F
:101A80008A150030840A80008030840A8000173074
:101A9000840A80000830840A80008A1551258A153E
:021AA000502DC7
:0E1AA20004088A1535278A15F930840A800059
:101AB0000730840A80000130840A80008A15FF25DF
:101AC0008A150030840A80008A15FF258A150020B7
:101AD0008A151A30840A8000FC30840A80008A113A
:101AE000AD248A159C238A150008840383120317EA
:101AF000C100F930840A80000730840A8000053074
:101B0000840A80008A15FF258A150430840A800023
:101B10008A15FF258A1500208A151A30840A80004C
:101B2000FC30840A80008A11AD248A159C238A1512
:101B30000008840383120317C0000030840A800069
:101B40000030840A80000430840A80008A1516213F
:101B50008A1500208A1172208A150030840A8000BC
:0E1B60008A1516218A15D9228A15F603512DF1
:021B6E001B302A
:101B7000840A80008A15CD278A155B30840A80008C
:101B80008A15CD278A1542268A153B30840A8000A3
:101B90008A15CD278A1542268A154830840A800086
:101BA0008A15CD278A150008840383120317BC0009
:101BB000003A0319E82D83120317BD00DB30840AB5
:101BC00080008A15CD278A1583120317BD0BDE2DE1
:101BD000831203173C08800200088403003A0319AB
:101BE000FE2D83120317BD00B030840A80008A15D1
:0E1BF000CD278A1583120317BD0BF42D0800B4
:021BFE0083134F
:101C0000FB080319112E0408F1007608840000086F
:101C10008403F3000408F60071088400F1017308DE
:101C20001E2E0408F0007608840000088403F200E9
:101C30000408F60070088400F00172088313FB08A2
:101C4000031D322EF4000408F00000087402840022
:101C50000008F20070088400F00172088000740827
:101C60008A15352FF5000408F1000008750284007C
:101C70000008F30071088400F10173088000750802
:041C80008A15352F5D
:0C1C84000008840383120317C200840AC6
:101C900080006430840A80008A15C2268A150008F4
:101CA0008403303E840A80008A15CD278A1583126A
:101CB00003174208840A80006430840A80008A1571
:101CC000EB268A150A30840A80008A15C2268A15F6
:101CD00000088403303E840A80008A15CD278A15C7
:101CE000831203174208840A80000A30840A8000A5
:101CF0008A15EB268A1500088403303E840A80008A
:081D00008A15CD278A150800A1
:081D0800000884038312031795
:101D1000A400A601A41F8F2E00088403BC2E000877
:101D20008403803E83120317A6002408073CA20008
:101D30000E308A009F30220703188A0A8200BC2EC8
:101D4000B92EB62EB32EB02EAD2EAA2EA72E03106E
:101D5000A60CA00C0310A60CA00C0310A60CA00C43
:101D60000310A60CA00C0310A60CA00C0310A60CCC
:101D7000A00C0310A60CA00C831203172608840ADB
:041D800080000800D7
:0C1D8400FB080319D82E83120317BA01C4
:101D900000088403B80000088403B6003808B602BF
:101DA000031CD42EBA0ACF2E3A08840A80000800F9
:101DB00083120317BB0100088403B90000088403E1
:101DC000B7003908B702031CE72EBB0AE22E3B0816
:061DD000840A80000800F7
:0A1DD600FB080319012F8312031705
:101DE000BA0100088403B80000088403B60038086C
:101DF000B602031CFD2EBA0AF82E3607840A8000AC
:101E0000080083120317BB0100088403B90000080F
:101E10008403B7003908B702031C102FBB0A0B2F2D
:081E20003707840A8000080066
:081E28008313FB080319262FA8
:101E30000408F1007608840000088403F300040815
:101E4000F60071088400F1017308332F0408F000D4
:101E50007608840000088403F2000408F600700885
:0A1E60008400F001720883130800EB
:061E6A008313FB080319BD
:101E7000462FF3000408F100760884007308F60A80
:101E8000840A800071088400F101522FF2000408D6
:101E9000F000760884007208F60A840A8000700850
:081EA0008400F0018313080027
:081EA800FB080319632F000879
:101EB000840383120317B60003010007B603031D52
:101EC0005D2F800008000008840383120317B70009
:0E1ED00003010007B703031D692F80000800FF
:021EDE000008FA
:101EE000840383120317A00000088403A200840A5D
:101EF00080002008840A80002208840A80002008CC
:061F0000840A80000800C5
:0A1F06000230840A800083120313E6
:101F10001F08840A80008A11F9238A1500088403A7
:0C1F2000003A0319942F832F0800952F1E
:041F2C008312031306
:101F30000C08840A80000230840A80008A11F92388
:101F40008A1500088403003A0319A72FA82F962F9B
:021F5000080087
:0E1F520000088403803A031DB62F00088403A4
:101F60007F39003A031DB72F0130B82F84030030AA
:061F7000840A8000080055
:0A1F7600831203130508840A80009B
:101F80001030840A80008A11F9238A15000884031E
:0A1F9000003A0319CC2FBB2F080004
:061F9A000008840383121D
:101FA00003130C1ED12F8312031399008312031302
:061FB0000C1ED82F0800F2
:0A1FB6000008840300060130031D3B
:0A1FC00000308403840A800008004A
:061FCA00831203138C1EBC
:0E1FD000E72F831203131A08840A800008000A
:021FDE00FB0105
:101FE0009F3084001F30F600F00183138A15E72C20
:0E1FF0000008840300078403840A80000800B0
:02400E00C630BA
:00000001FF
