:020000040000FA
:060000008B138A11722A25
:04000600003400348E
:06000A0070308A11FC2198
:100010008A11831603130F088A11FC218A117B228F
:100020008A1100088403831603138F0011308A118C
:10003000FC218A1100088403831603139900003001
:100040008A11FC218A1100088403831603139A0085
:1000500004308A11FC218A118316031318088A11AF
:10006000FC218A1108218A110008840383160313D6
:10007000980004308A11FC218A1183120313180896
:100080008A11FC218A1108218A1100088403831235
:100090000313980004308A11FC218A118312031380
:1000A00018088A11FC218A11CD208A1100088403C6
:1000B00083120313980007308A11FC218A118312DE
:1000C000031318088A11FC218A11CD208A11000817
:1000D000840383120313980005308A11FC218A11CE
:1000E00006308A11FC218A1102308A11FC218A1102
:1000F0008316031318088A11FC218A11CD208A1156
:1001000008218A11CD208A11000884038316031365
:10011000980003308A11FC218A1104308A11FC21D5
:100120008A11831603131B088A11FC218A11CD2022
:100130008A11CD208A1100088403831603139B00C3
:1001400000308A11FC218A110008840383120317EE
:100150009F0000308A11FC218A1100088403831259
:1001600003179E0005308A11FC218A1104308A1180
:10017000FC218A11831603130C088A11FC218A11B1
:1001800008218A1108218A110008840383160313A9
:0A0190008C008A113A228A11CC2853
:06019A0000088403831637
:1001A0000313B40000088403003A031DDA2834085E
:1001B00001380529013A031DE028340802380529D1
:1001C000013A023A031DE728340804380529023AA7
:1001D000033A031DEE28340808380529033A043A87
:1001E000031DF528340810380529043A053A031D83
:1001F000FC28340820380529053A063A031D03294E
:1002000034084038052934088038840A8000080002
:100210000008840383160313B40000088403003A23
:10022000031D15293408FE394029013A031D1B29F5
:100230003408FD394029013A023A031D22293408C5
:10024000FB394029023A033A031D29293408F739BA
:100250004029033A043A031D30293408EF39402974
:10026000043A053A031D37293408DF394029053A95
:10027000063A031D3E293408BF39402934087F3926
:06028000840A8000080062
:0A02860004088A11C5218A11003016
:100290008A11FC218A1174218A11E4218A11FC211E
:1002A0008A1100308A11FC218A1154228A11000817
:1002B0008403003A03195D29712900308A11FC2159
:1002C0008A1174218A11E4218A11FC218A11682281
:1002D0008A1101308A11FC218A1182228A11F303CA
:0802E0004329F3030800732910
:0802E8008313F80803198629AD
:1002F0000408F1007308840000088403F200040875
:10030000F30071088400F101720893290408F000D9
:100310007308840000088403F1000408F3007008E7
:100320008400F00171088313F2000408F000000853
:10033000720284000008F10070088400F001710866
:08034000800072088A11C52932
:080348008313F8080319B6291C
:100350000408F1007308840000088403F200040814
:10036000F30071088400F1017208C3290408F00049
:100370007308840000088403F1000408F300700887
:0A0380008400F001710883130800E7
:06038A008313F8080319BB
:10039000D629F2000408F100730884007208F30AF9
:1003A000840A800071088400F101E229F100040848
:1003B000F000730884007108F30A840A8000700852
:0803C0008400F0018313080022
:0803C80001308A00EC3000074F
:1003D000840303188A0A82000D340A3448346534D1
:1003E0006C346C346F342C34203457346F347234A2
:0803F0006C3464342134003444
:0803F800840A80000408203C87
:100400000319042A03180B2A0408013E703C031C3C
:100410000B2A000808008B1384032130840A800013
:080420008A1168228A110D2ADD
:0804280083160313B60100085E
:100430008403B50000088403B4003508B402031C2B
:0E044000232AB60A1E2A3608840A8000080005
:02044E00831613
:100450000313B60100088403B50000088403B40048
:100460003508B402031C362AB60A312A3407840A36
:040470008000080000
:0C04740004088A11C5218A1100308A1189
:10048000FC218A1143218A11A4218A1184000800C9
:100490000008840383160313B40003010007B403A8
:0804A000031D4E2A8000080034
:0804A800000884030006013086
:0C04B000031D00308403840A8000080053
:0404BC008312031391
:1004C0008C1E602A831203131A08840A8000080015
:1004D00000088403831203139900831203130C1E74
:0404E0006F2A080077
:0C04E400F8011F3084009F30F300F0018D
:0604F00083138A110528A8
:0A04F6000008840300048403840A54
:04050000800008006F
:0C0504000008840300078403840A8000C0
:020510000800E1
:060512008009800A0800C8
:040518008403080050
:02400E00C433B9
:00000001FF
